:100000000428FF3FFF3FFF3F79244630AA007230AB
:10001000AB006530AC007330AD006130AE006430D1
:10002000AF006F30B0007230B1006130B2002030EC
:10003000B3004330B4004E30B5004330B600B701D2
:100040004630B8007230B9006530BA007330BB007A
:100050006130BC006430BD006F30BE007230BF0044
:100060006130C0002030C1004330C2004E30C300B8
:100070004330C400C5014230C6006F30C7006D3048
:10008000C8006230C9006130CA002030CB004C305B
:10009000CC006930CD006730CE006130CF006430D5
:1000A000D0006130D1002130D200D3014630D400DD
:1000B0007230D5006530D6007330D7006130D8007B
:1000C0002030D9004C30DA006930DB006730DC00CA
:1000D0006130DD006430DE006130DF002130E0009F
:1000E000E1014830E2006F30E3007230E40061303B
:1000F000E5007330E6003A30E700E8014430E900FB
:100100006130EA007430EB006130EC003A30ED0011
:10011000EE01813083169900181569248316870132
:100120008801890183128701073083169F008901A6
:10013000831289010F3083168500831285010630F2
:100140008316A0000830A100F52201308316A90013
:100150008F230C308316A9008F2301308316A00053
:100160000130A1002A30A200E02338308312EF00D2
:10017000592488240730FC00FF30FB00FF30FA00D0
:10018000FC0BC328CA28FB0BC628C928FA0BC628B3
:10019000C328C0286030FB00FF30FA00FB0BD128D9
:1001A000D428FA0BD128CE281430FA00FA0BD6281E
:1001B0003123013083120505F1007108003A031D57
:1001C0000D29091401308316A9008F2301308316ED
:1001D000A0000130A1004630A200E0230630FC0060
:1001E000FF30FB00FF30FA00FC0BF728FE28FB0B6A
:1001F000FA28FD28FA0BFA28F728F4281A30FB0011
:10020000FF30FA00FB0B05290829FA0B0529022902
:100210004230FA00FA0B0A290F298312091003133E
:100220008312003085180130F1007108003A031D77
:100230004529891401308316A9008F2302308316C3
:10024000A0000130A1005430A200E0230630FC00E1
:10025000FF30FB00FF30FA00FC0B2F293629FB0B87
:1002600032293529FA0B32292F292C291A30FB0083
:10027000FF30FA00FB0B3D294029FA0B3D293A29B2
:100280004230FA00FA0B42294729831289100313DE
:100290008312003085190130F1007108003A031D06
:1002A000832901308316A9008F2301308316A00013
:1002B0000130A1006230A200E0230230A000013032
:1002C000A1006930A200E023AE210630FC00FF301F
:1002D000FB00FF30FA00FC0B6E297529FB0B71291E
:1002E0007429FA0B71296E296B291A30FB00FF3033
:1002F000FA00FB0B7C297F29FA0B7C2979294230F3
:10030000FA00FA0B8129003005190130F10071085B
:10031000003A031DAB2909110630FC00FF30FB0039
:10032000FF30FA00FC0B95299C29FB0B98299B298F
:10033000FA0B9829952992291A30FB00FF30FA0010
:10034000FB0BA329A629FA0BA329A0294230FA0006
:10035000FA0BA829AC290915D928AD29BA220130F0
:10036000A5000730A600F030831225058316A700EC
:10037000A70CA713A70CA713A70CA713A70CA713C9
:100380003030A707592301308316A5000830A60096
:100390000F30831225058316A7003030A707592395
:1003A00001308316A5000930A6003A30A700592372
:1003B00001308316A5000A30A600F0308312240510
:1003C0008316A700A70CA713A70CA713A70CA713A6
:1003D000A70CA7133030A707592301308316A500B7
:1003E0000B30A6000F30831224058316A70030308F
:1003F000A707592301308316A5000C30A6003A3018
:10040000A700592301308316A5000D30A600F03057
:10041000831223058316A700A70CA713A70CA71305
:10042000A70CA713A70CA7133030A7075923013037
:100430008316A5000E30A6000F3083122305831605
:10044000A7003030A707592302308316A5000730D4
:10045000A600F030831227058316A700A70CA71368
:10046000A70CA713A70CA713A70CA7133030A70737
:10047000592302308316A5000830A6000F308312DE
:1004800027058316A7003030A707592302308316AB
:10049000A5000930A6002F30A7005923023083168B
:1004A000A5000A30A600F030831228058316A700A5
:1004B000A70CA713A70CA713A70CA713A70CA71388
:1004C0003030A707592302308316A5000B30A60051
:1004D0000F30831228058316A7003030A707592351
:1004E00002308316A5000C30A6002F30A700592338
:1004F00002308316A5000D30A600F03083122905C6
:100500008316A700A70CA713A70CA713A70CA71364
:10051000A70CA7133030A707592302308316A50074
:100520000E30A6000F30831229058316A700303045
:10053000A70759230330FC00FF30FB00FF30FA000F
:10054000FC0BA32AAA2AFB0BA62AA92AFA0BA62A85
:10055000A32AA02A8C30FB00FF30FA00FB0BB12A43
:10056000B42AFA0BB12AAE2AA130FA00FA0BB62A45
:1005700000000800BA23D030A900FE23A901FE2301
:10058000A024D130A900FE230130A900192470084D
:100590008312A30001308316A90019247008831266
:1005A000A40001308316A900192470088312A50045
:1005B00001308316A900192470088312A6000130A7
:1005C0008316A900192470088312A700013083162E
:1005D000A900192470088312A8008316A901192400
:1005E00070088312A900AF24080048244824482436
:1005F000831621088312A000831621088400841723
:10060000800120088312A100831620088400801036
:100610008417001080100011841301308312A2008F
:1006200030308316A9008F2330308316A9008F2322
:1006300030308316A9008F2338308316A9008F230A
:1006400008308316A9008F2301308316A9008F2359
:1006500006308316A9008F230C308316A9008F2340
:100660000800BA23D030A900FE23A901FE23A90166
:10067000FE23831224088316A900FE238312250873
:100680008316A900FE23831226088316A900FE23E1
:10069000831227088316A900FE23831228088316D5
:1006A000A900FE23831229088316A900FE23AF2484
:1006B00008006B2B803003138316A5007E2BC030FF
:1006C000A5007E2B9430A5007E2BD430A5007E2B78
:1006D0008030A5007E2B031383162508013A0319E9
:1006E0005A2B2508023A03195F2B2508033A0319F0
:1006F000622B2508043A0319652B682B2603F000AA
:100700002508F0077008A5007008A9008F23A20132
:1007100083162708A9008F230130A20008000313C5
:100720008312200884008001831629080319982B5E
:10073000A91B8017291B0017A91A8016291A001651
:10074000A919801529190015A91880142918001451
:10075000831221088400001422080319B02B001012
:1007600000159824001122080319B82B4824B92B2E
:10077000A824080003138316A901AA012A08123C21
:10078000031DC42B29088E3C031CCE2B3224700879
:10079000031DCE2BA90A0319AA0ABE2B12302A0266
:1007A000031DD42B8F302902031CD92B7B30F00082
:1007B00008001114111CDE2B0000DA2BF0010800D8
:1007C00003138316A301220884000008A400240850
:1007D0000319FD2B2008A50023082107A6002308E4
:1007E000220784000008A70059238316A30A2308C0
:1007F000220784000008A400E72B080003138316D7
:100800002908831293008C1183161419042C831267
:100810008C1D072C00308316111B0130F10071086C
:10082000003A031D152CF001080011150230F000EC
:10083000080003138316911583128C118C1D1E2C36
:1008400013088316AA0091122908003A031D292CC7
:100850009116111683128C118C1D2C2C83162A08CC
:10086000F000080000300313831614190130F10062
:100870007108003A031D462C1F301105F100710864
:10088000003A031D462C0130F0000800F00108007A
:10089000243003138312FB00FF30FA00FB0B512CB2
:1008A000542CFA0B512C4E2C9E30FA00FA0B562C7D
:1008B000080000300313831698180130F100710806
:1008C000003A031D652C0000592C83126F08990013
:1008D000080003138316981690308312980083162D
:1008E0008717071383128C1E782C1A08EF00722CBE
:1008F0000800403003138312A4001330A500043015
:10090000A6002330A7001130A8001630A900080067
:1009100032300313831693008E24080003138316CA
:1009200014139413071687153830831294000800A7
:10093000013003138312FA00FA0B9C2C000008000C
:10094000031383169114911CA72C0000A32C0800FC
:10095000533003138312FA00FA0BAC2C0800031374
:10096000831611150800FF3FFF3FFF3FFF3FFF3F8A
:02400E007A3FF7
:00000001FF
