:020000040000FA
:10000000542DFF3FFF3F00000000000000000800EB
:100010001D3083120313FC009130FD00FD0B0E28F0
:10002000FC0B0E280800423083120313FD00FD0B69
:1000300017280000080083160313BD1B2228831213
:10004000861324288312861783163D1B2A288312C1
:1000500006132C28831206178316BD1A3228831222
:10006000861234288312861683163D1A3A28831284
:1000700006123C28831206166C18402806154128E3
:1000800006118615032086118316BD194A2883128E
:1000900086134C288312861783163D195228831223
:1000A00006135428831206178316BD185A28831284
:1000B00086125C288312861683163D1862288312E6
:1000C00006126428831206166C186828061569281B
:1000D00006118615032086116C1C702808207128D3
:1000E000132008007408F8027508031C750FF90244
:1000F0007608031C760FFA027708031C770FFB02C1
:10010000F30D0730FC00730DF80DF90DFA0DFB0D22
:100110007408731C9928F8027508031C750FF902FE
:100120007608031C760FFA027708031C770FFB0290
:10013000A628F80775080318750FF907760803183D
:10014000760FFA0777080318770FFB07F30DFC0B00
:100150008328720DF80DF90DFA0DFB0D7408731C50
:10016000BF28F8027508031C750FF9027608031CF6
:10017000760FFA027708031C770FFB02CC28F807EA
:1001800075080318750FF90776080318760FFA0734
:1001900077080318770FFB07F20D0730FC00720D8C
:1001A000F80DF90DFA0DFB0D7408721CE528F80224
:1001B0007508031C750FF9027608031C760FFA0206
:1001C0007708031C770FFB02F228F807750803185D
:1001D000750FF90776080318760FFA0777080318E2
:1001E000770FFB07F20DFC0BCF28710DF80DF90D01
:1001F000FA0DFB0D7408721C0B29F8027508031C1C
:10020000750FF9027608031C760FFA027708031CB3
:10021000770FFB021829F80775080318750FF907FF
:1002200076080318760FFA0777080318770FFB078D
:10023000F10D0730FC00710DF80DF90DFA0DFB0DF5
:100240007408711C3129F8027508031C750FF90236
:100250007608031C760FFA027708031C770FFB025F
:100260003E29F80775080318750FF9077608031873
:10027000760FFA0777080318770FFB07F10DFC0BD1
:100280001B29700DF80DF90DFA0DFB0D7408711C8A
:100290005729F8027508031C750FF9027608031C2C
:1002A000760FFA027708031C770FFB026429F80720
:1002B00075080318750FF90776080318760FFA0703
:1002C00077080318770FFB07F00D0730FC00700D5F
:1002D000F80DF90DFA0DFB0D7408701C7D29F8025C
:1002E0007508031C750FF9027608031C760FFA02D5
:1002F0007708031C770FFB028A29F8077508031893
:10030000750FF90776080318760FFA0777080318B0
:10031000770FFB07F00DFC0B672970189D297408F7
:10032000F80775080318750FF90776080318760F94
:10033000FA0777080318770FFB070800FB09FA098B
:10034000F909F809F80A0319F90A0319FA0A03194D
:10035000FB0A0800831203136C1083163C08BD00CF
:100360001B206C1408001D3083120313FD00FD0BCD
:10037000B72908008316031332088A003108820067
:100380000800831203137408003A031DDC29750862
:10039000003A031DDC297608003A031DDC297708A2
:1003A000003A031DDC29FF30F000FF30F100FF3080
:1003B000F2007F30F300752A83120313FC01F71B50
:1003C000FC0AFD01FB01FA01F901F801730872044E
:1003D000710470040319702A73087706A000A01B2B
:1003E000FD09F71FFE29F409F509F609F709F40AD2
:1003F0000319F50A0319F60A0319F70AF31F0B2A62
:10040000F009F109F209F309F00A0319F10A0319D5
:10041000F20A0319F30A73087704A000A01B2C2A20
:100420007220FC1B492AFD1F702AF009F109F2090C
:10043000F309F00A0319F10A0319F20A0319F30A7E
:10044000F809F909FA09FB09F80A0319F90A031965
:10045000FA0A0319FB0A702AF71F432AF31B3D2AE5
:100460007308FB007208FA007108F9007008F800C0
:10047000F301F201F101F001132AF301F201F1019C
:10048000F001F00A0034F309F209F109F009FC1750
:10049000102AF80A0319F90A0319FA0A0319FB0AC0
:1004A00074087802031D132A75087902031D132AA4
:1004B00076087A02031D132A77087B02031D132A8C
:1004C000FB01FA01F901F801F00A0319F10A031915
:1004D000F20A0319F30AF31F132AA0012016FF34AE
:1004E000A0017C1C742A9E21003E0800882A8030CE
:1004F00083160313B8009B2AC030B8009B2A94309F
:10050000B8009B2AD430B8009B2A8030B8009B2AC0
:10051000831603133808013A0319772A3808023A78
:1005200003197C2A3808033A03197F2A3808043A49
:100530000319822A852A3903F0003808F007700869
:10054000B8007008BD001B206C108316BB013B086F
:100550003A07840000080319B62A3B083A078400CA
:100560000008BC00AA218316BB0AA72A83126C14B8
:100570000800CB2A803083160313B800DE2AC0306F
:10058000B800DE2A9430B800DE2AD430B800DE2A63
:100590008030B800DE2A831603133808013A0319A5
:1005A000BA2A3808023A0319BF2A3808033A03194D
:1005B000C22A3808043A0319C52AC82A3903F000A8
:1005C0003808F0077008B80083126C14700883169E
:1005D000BD001B206C1083163A08BD001B206C1454
:1005E00008000030831203138C1A0130F000080059
:1005F000831203131A08F100981C002B1812181606
:100600007108F0000800831603139818092B0000E6
:10061000032B3708831299000800831203139F01EC
:10062000C0309F0483161F179F173708F000F00D86
:100630007010F00D7010F00D7010700883129F0490
:100640001F14B3211F151F1D272B0000232B1F1064
:100650001E08F100F00183161E08F0040030F104BA
:10066000080083120313ED01EE0180306E06F000E6
:1006700080307002031D3E2B11306D0203185F2B7A
:1006800002308316B80083126D088316B900243037
:10069000BA00762203308316BC00AA210230FB0088
:1006A0000430FC00BA30FD00FD0B542BFC0B542B26
:1006B000FB0B542B0000ED0A0319EE0A352BED015C
:1006C000EE0180306E06F00080307002031D6A2B50
:1006D00011306D020318872B02308316B800831285
:1006E0006D088316B9002230BA0076220230FB0072
:1006F0000430FC00BA30FD00FD0B7C2BFC0B7C2B86
:10070000FB0B7C2B0000ED0A0319EE0A612B08009D
:10071000403083160313BD001B208316B701370832
:10072000073C031CA62B3708033EF00007300318D4
:10073000013EF1007008B1007108B200BA218A11BF
:100740000A12BC00AA218316B70A8F2BB7013708FB
:10075000073C031CBE2B3708FB3EF0000630031895
:10076000013EF1007008B1007108B200BA218A118F
:100770000A12BC00AA218316B70AA72BB7013708B3
:10078000073C031CD62B3708133EF0000730031834
:10079000013EF1007008B1007108B200BA218A115F
:1007A0000A12BC00AA218316B70ABF2BB70137086B
:1007B000073C031CEE2B37080B3EF00007300318F4
:1007C000013EF1007008B1007108B200BA218A112F
:1007D0000A12BC00AA218316B70AD72BB701370823
:1007E000073C031C062C3708F33EF00006300318C4
:1007F000013EF1007008B1007108B200BA218A11FF
:100800000A12BC00AA218316B70AEF2B0800831630
:10081000031386110611061286120613861383121D
:100820008611061186130613861206120820082068
:1008300008208616061686150320861108208615C0
:100840000320861108208615032086110820061231
:10085000861503208611082086150320861186122E
:10086000861786150320861108208613061686151E
:10087000032086110612861503208611082086158E
:1008800003208611061686150320861108200612FD
:1008900086150320861186170617861606168615F6
:1008A0000320861108206C140800BA218A110A124C
:1008B0008000840AB10A0319B20AF003031D552C03
:1008C000080083160313981690308312980083163D
:1008D0008717071383128C1E702C1A08F0006A2CDD
:1008E000080083120313871401308316B800033005
:1008F000B9004530BA0076221030F4002730F500F8
:10090000F601F7015308F0005408F1005508F20011
:100910005608F300C12170088316B3007108B400B3
:100920007208B5007308B6000230B8000430B90090
:1009300030307007BA00B922E830F4000330F50017
:10094000F601F7015308F0005408F1005508F200D1
:100950005608F300C1210A30F400F501F601F70151
:10096000C1217808F0007908F1007A08F2007B08CC
:10097000F30070088316B3007108B4007208B50064
:100980007308B6000230B8000530B9003030700787
:10099000BA00B9226430F400F501F601F7015308FA
:1009A000F0005408F1005508F2005608F300C12188
:1009B0000A30F400F501F601F701C1217808F000D2
:1009C0007908F1007A08F2007B08F30070088316BA
:1009D000B3007108B4007208B5007308B6000230A5
:1009E000B8000630B90030307007BA00B9220A30BA
:1009F000F400F501F601F7015308F0005408F10086
:100A00005508F2005608F300C1210A30F400F50140
:100A1000F601F701C1217808F0007908F1007A08A1
:100A2000F2007B08F30070088316B3007108B4006D
:100A30007208B5007308B6000230B8000730B9007C
:100A400030307007BA00B9220A30F400F501F6011F
:100A5000F7015308F0005408F1005508F200560859
:100A6000F300C1217808F0007908F1007A08F2005B
:100A70007B08F30070088316B3007108B400720895
:100A8000B5007308B6000230B8000830B900303045
:100A90007007BA00B92202308316B8000A30B900D4
:100AA0004130BA00762208001C27673083160313F2
:100AB0009900181561240330FB000830FC007730E2
:100AC000FD00FD0B612DFC0B612DFB0B612D8030BA
:100AD000831687008312870183168601831286019D
:100AE0000E3083169F000E30850083128501072487
:100AF00001308316BD001B200C308316BD001B2067
:100B000088230130B8000330B9002130BA007622C2
:100B10008316BC01AA2101308316B8000430B90045
:100B20005730BA00762201308316BC00AA21023069
:100B30008316BC00AA2101308316BC00AA213123F0
:100B4000F12270080319AB2DF8227008EF0070082D
:100B50008316B70003238823B7010D23700883127F
:100B6000D3007108D400D501D6018518BE2D051912
:100B7000BE2D7830EF0007147124C02D07108710A8
:100B80008518D02D7830EF0007143430FC00F13098
:100B9000FD00FD0BC92DFC0BC92D00000000D12D5F
:100BA00007100519D82D7830EF0087147124D92D3E
:100BB00087108519EB2D7830EF0087110530FB0089
:100BC0000F30FC00F130FD00FD0BE42DFC0BE42D9B
:100BD000FB0BE42DEC2D87156F086D3A031DF22DEC
:100BE000071471246F084D3A031D222E0710871039
:100BF00088230130B8000330B9006B30BA00762288
:100C00008316BC01AA2101308316B8000430B90054
:100C10006130BA00762201308316BC00AA2102306E
:100C20008316BC00AA2101308316BC00AA21023021
:100C30008316B8000130B900A030BA007622312303
:100C40007830EF00782E07143430FC00F130FD00CE
:100C5000FD0B282EFC0B282E00000000902E871480
:100C60003430FC00F130FD00FD0B342EFC0B342E33
:100C7000000000007124902E87113430FC00F13008
:100C8000FD00FD0B412EFC0B412E00000000902EBC
:100C90000710902E871088230130B8000330B90068
:100CA0004030BA0076228316BC01AA210130831697
:100CB000B8000430B9003630BA007622013083160D
:100CC000BC00AA2102308316BC00AA210130831681
:100CD000BC00AA2102308316B8000130B9002530CB
:100CE000BA0076227830EF003123902E8715902EAF
:100CF0006F08623A0319232E6F08663A03192F2EE4
:100D00006F08683A03193C2E6F08423A0319482EBF
:100D10006F08463A03194A2E6F08483A0319762E8F
:100D2000A02D912EFF3FFF3FFF3FFF3FFF3F0034CD
:100D30002034003400342034203420342034203453
:100D40002034203420342034203420342034203403
:100D500020342034203400347234653473346134E8
:100D600064346F34723461342034003400345234CB
:100D700050344D3400342034563465346C346F3480
:100D80006334693464346134643465342034203429
:100D90000034003400340034003472346534733469
:100DA000613464346F34723461342034003420345C
:100DB0002034203420342034203420342034203493
:100DC00020342034203420342034203420340034A3
:100DD000723465347334613464346F347234613422
:100DE0002034003400341F341934173413341734CA
:100DF00017341F341F340E341D341C341C341C347F
:100E00001D340E3400340F3418341E3418341834A2
:100E100018341034003415340A3415340A341534B7
:100E20000A341534003419341D341D341F341B3476
:100E30001B3419340034FF3F2130840040308312CA
:100E40000313F00097308316B1000630B20055242A
:100E5000A030840011308312F000D7308316B10027
:100E60000630B2005524613084000B308312F0004C
:100E7000E8308316B1000630B20055240800FF3F69
:100E8000FF3FFF3FFF3FFF3FFF3FFF3FFF3FFF3F72
:100E9000FF3FFF3FFF3FFF3FFF3FFF3FFF3FFF3F62
:100EA000FF3FFF3FFF3FFF3FFF3FFF3FFF3FFF3F52
:100EB000FF3FFF3FFF3FFF3FFF3FFF3FFF3FFF3F42
:02400E007A3FF7
:08400000FF3FFF3FFF3FFF3FC0
:00000001FF
