:100000000C9491010C94A3010C94A3010C94CF01C6
:100010000C9401120C94A3010C94A3010C94A30161
:100020000C94A3010C94A3010C94A3010C949D1AAD
:100030000C94A3010C94A3010C94A3010C94A301B0
:100040000C941E1A0C94A3010C9477270C94F92796
:100050000C94A3010C94A3010C94A3010C94A30190
:100060000C94A3010C94A301D030D630D930DC30ED
:10007000E130E930F1308C318C318C31FE3001319E
:100080000A3113318C318C318C318C318C318C3183
:100090001F31293135313D314031493152315831EB
:1000A0008C318C3161316A317531A2042F102F10DF
:1000B000AC04B904C604D3042F10D7042F10E504F0
:1000C0002F10EF04F9042A052F102F102F1003050D
:1000D00010051D05AD27AF27E827E827E827E82703
:1000E000E827E827E827E827E827E827B527B727FC
:1000F000B927BB27BD27BF27C127C327E827C727A5
:10010000C927CB27CD27CF27D127E827D327084AD0
:10011000D73B3BCE016E84BCBFFDC12F3D6C74311B
:100120009ABD56833DDA3D00C77F11BED9E4BB4C72
:100130003E916BAAAABE000000803F05A84CCDB23C
:10014000D44EB93836A9020C50B9918688083CA61D
:10015000AAAA2ABE000000803F000D0A4772626C06
:1001600020312E3165205B27242720666F7220689E
:10017000656C705D0D0A00244E005B4F50543A00D0
:100180005B5645523A312E31652E3230313730319F
:1001900030333A005B544C4F3A005B4739323A00F7
:1001A0003330003238005B4700204700204D0020EC
:1001B000530020460020540033382E005B47433A5A
:1001C00047005B484C503A24242024232024472015
:1001D000244920244E2024783D76616C20244E78DA
:1001E0003D6C696E6520244A3D6C696E6520245320
:1001F0004C50202443202458202448207E202120B5
:100200003F206374726C2D785D0D0A00536C656538
:1002100070696E6700526573746F72696E672073E0
:1002200070696E646C6500526573746F72696E6795
:100230002064656661756C74730050676D20456E4F
:100240006400436865636B204C696D697473004397
:100250006865636B20446F6F720044697361626C00
:10026000656400456E61626C656400436175746924
:100270006F6E3A20556E6C6F636B6564002724487F
:10028000277C2724582720746F20756E6C6F636B52
:1002900000526573657420746F20636F6E74696EAD
:1002A0007565005B4D53473A006F6B0D0A00414C7A
:1002B00041524D3A007C413A007C4F763A007C57DF
:1002C000434F3A007C506E3A007C46533A007C42E1
:1002D000663A007C57506F733A007C4D506F733A0A
:1002E00000536C65657000446F6F723A0043686537
:1002F000636B00416C61726D00486F6D65004A6F01
:100300006700486F6C643A0052756E0049646C6512
:10031000000D0A005B5052423A006572726F723AE9
:10032000000011241FBECFEFD8E0DEBFCDBF27E015
:10033000A0E0B1E001C01D92AF35B207E1F70E9425
:10034000782C0C94303B0C940000EBE6F0E08081BC
:10035000897E8083E8E6F0E080818E7F8083089547
:1003600084B1897E84B985B1866185B98091700137
:1003700083FF0BC080916B00866180936B0080913E
:10038000680081608093680008950C94A501F99934
:10039000FECF92BD81BD81E08FBB80B508951F92D5
:1003A0000F920FB60F9211242F933F934F935F93A9
:1003B0006F937F938F939F93AF93BF93EF93FF932D
:1003C00080911A01813049F080914C05811105C05E
:1003D0000E94032681E00E949111FF91EF91BF914D
:1003E000AF919F918F917F916F915F914F913F91CD
:1003F0002F910F900FBE0F901F90189593B196718B
:100400008091700186FD02C086E19827992349F00A
:1004100091FB882780F992FD8260907119F08460C9
:10042000089580E0089561E071E087E991E00C941F
:10043000AA118F929F92AF92BF92CF92DF92EF92CA
:10044000FF920F931F93CF934B017A016C01C40E5F
:10045000D51E8C01C0E05B01A81AB90AC501800F46
:10046000911F0C151D0599F00E94C701C11108C00C
:100470002C2FCC0F330B232F221F2227221F01C02A
:1004800021E0C22FC80FF80181938F01E7CFC4018B
:100490008E0D9F1D0E94C70121E030E0C81711F0AA
:1004A00020E030E0C901CF911F910F91FF90EF90B4
:1004B000DF90CF90BF90AF909F908F900895F89469
:1004C000F999FECF92BD81BD81E08FBB80B58627B3
:1004D000482F082E000C550B262F30E024233523FF
:1004E000232B39F06F3F19F060BD84E006C084E132
:1004F00004C0882321F060BD84E28FBBF99A789410
:1005000008958F929F92AF92BF92CF92DF92EF9217
:10051000FF920F931F93CF937C014A016B01C40E8E
:10052000D51E8B01C0E05C01A61AB70AC8018A0D6E
:100530009B1D0C151D0599F0C11108C02C2FCC0F67
:10054000330B232F221F2227221F01C021E0F80195
:1005500061918F01C22FC60F0E945F02E7CF6C2FFF
:10056000C701880D991DCF911F910F91FF90EF90BA
:10057000DF90CF90BF90AF909F908F900C945F02D0
:1005800090911B01911108C0811102C0439802C0D3
:1005900086FD439A1092250108952F923F924F9223
:1005A0005F926F927F928F929F92AF92BF92CF9203
:1005B000DF92EF92FF920F931F93CF93DF93CDB70C
:1005C000DEB7CE54D1090FB6F894DEBF0FBECDBF53
:1005D00089E3EFEBF1E0DF011D928A95E9F78AE00C
:1005E000E0E8F1E0A0ECB1E001900D928A95E1F72E
:1005F00080910F07843211F00C94531081E08093A6
:10060000C0011092C10183E08A8FB1E0BBA3212C0D
:10061000312C18AA1FA6C12C1B8E1F8EDD24D3944B
:100620001AE0A12EB12C0EE581E6882E83E0982EEB
:100630008A8DE82FF0E0E15FF84FE080EE2009F4CA
:1006400030C29FEB9E0D9A3110F00C9421108F5FF9
:100650008A8FBE016A5E7F4FCE014A960E94CD29E5
:10066000882311F40C9423104E885F88688C798C51
:10067000C301B2010E94FD3A0E943B38162F70E080
:1006800080E090E00E946C389B01AC01C301B20194
:100690000E94C23620E030E048EC52E40E941A3A50
:1006A0000E94873A0E943B38CB01E7E4EE1629F01E
:1006B000FDE4EF1609F4EAC034C1183209F4C5C0EC
:1006C00020F5143168F4113108F08AC0143009F4AF
:1006D00052C008F464C01A3009F445C00C942F10BD
:1006E0001C3109F440C050F4163110F00C942F1056
:1006F00025E1211B2093C20126E0ACC01E3199F1F7
:10070000163209F44CC00C942F101D3309F497C015
:10071000A8F4153381F140F41B3209F47AC0113387
:1007200009F477C00C942F101C3310F00C942F1088
:100730006AEC610F6093C60129E08CC01C3538F467
:100740001A3508F053C0103581F10C942F101C3568
:1007500051F01F3510F00C942F10202F211B2093E7
:10076000C10125E077C0009731F42F8D21110C9441
:10077000251031E03F8F1093BF01212F2D7F2C31A9
:1007800019F01C3509F063C0009721F00A9711F0A9
:100790000C942F10610F6093BF0120E060C06F8D3B
:1007A00061110C942510A2E0AF8F1093C001163296
:1007B00009F04FC08431910559F08E31910541F017
:1007C0008832910529F08233910511F00C942F1095
:1007D000B5010E946C3666576093C00121E03FC0AE
:1007E0006FEE610F6093C40122E034C0892B31F4B5
:1007F00066EA610F6093C30123E031C06A3071057E
:1008000011F00C942F101A3511F40C942F1024E0D1
:1008100026C0BF8DB1110C942510113331F4109204
:10082000C50128E0E3E0EF8F1AC00A9711F00C949D
:100830002F10D092C50128E0F3E0FF8F10C0892B64
:1008400011F00C942F102AE00AC027E003C020E02A
:1008500001C021E0892B19F087E10C94571081E049
:1008600090E002C0880F991F2A95E2F72FA538A9BA
:1008700028233923232B19F085E10C9457102FA539
:1008800038A9282B392B38AB2FA7D2CE892B21F7AB
:10089000163018F4133058F016C0183010F40C94B9
:1008A0002F101A30F0F01E3159F00C942F10112334
:1008B00019F0113001F104C033E03093C7011BC0BF
:1008C0001093C70118C0143021F0153031F080E1C9
:1008D00001C080E28093C90102C01092C9018CE07E
:1008E0000BC0193021F080E48093C80102C010923F
:1008F000C8018DE001C08BE0A1E0B0E002C0AA0F0A
:10090000BB1F8A95E2F72FA538A92A233B23232B67
:1009100009F0B2CFEFA5F8A9EA2BFB2BF8ABEFA7B4
:1009200087CE8E2DEE0C990BAA0BBB0BFC01E65467
:10093000F109E531F10510F00C942F10EB5AFF4F3F
:100940000C94A2364092CA015092CB016092CC0125
:100950007092CD0180E07FC04092CE015092CF01D5
:100960006092D0017092D101FC2DF160CF2E81E018
:1009700072C04092D2015092D3016092D401709221
:10098000D5012C2D2260C22E82E065C04092D60196
:100990005092D7016092D8017092D9013C2D3460F9
:1009A000C32E83E058C01093DA0184E054C0C30121
:1009B000B2010E9434386093DB017093DC018093B4
:1009C000DD019093DE0185E046C04092DF01509248
:1009D000E0016092E1017092E20186E03CC0409249
:1009E000E3015092E4016092E5017092E60187E034
:1009F00032C04092E7015092E8016092E9017092A2
:100A0000EA0188E028C04092EC015092ED0160922A
:100A1000EE017092EF016B8D61606B8F8AE01BC0FD
:100A20004092F0015092F1016092F2017092F30154
:100A30008B8D82608B8F8BE00EC04092F4015092C0
:100A4000F5016092F6017092F7019B8D94609B8F87
:100A50008CE001C089E0EE24E394F12C082E02C062
:100A6000EE0CFF1C0A94E2F7970122213321232B7D
:100A700011F00C942710D40102C0B595A7958A9562
:100A8000E2F7A0FF0BC020E030E0A901C301B201F2
:100A90000E94B83787FF02C00C9429102E283F28E7
:100AA000C7CDBB8DBB2329F0EF8DE11102C0F2E071
:100AB000FF8F25FE0FC08091DB019091DC01A0919A
:100AC000DD01B091DE0181389649A849B10514F0E5
:100AD0000C942B103BA13323F9F020FC02C00C94A2
:100AE00035108091C2018130C9F523E333E34BEC2B
:100AF00051E46091CA017091CB018091CC01909139
:100B0000CD010E941A3A6093CA017093CB01809381
:100B1000CC019093CD0122C08091C101813041F47C
:100B20006F8D6230D9F420FC02C00C94351016C0D1
:100B300080918101811112C020FCD3CF80918E0160
:100B400090918F01A0919001B09191018093CA0181
:100B50009093CB01A093CC01B093CD0130FC10C099
:100B600080918A0190918B01A0918C01B0918D01AF
:100B70008093E7019093E801A093E901B093EA0123
:100B80008091BF01843039F426FC03C08CE10C94C1
:100B90005710E89426F88091C401882369F08130C9
:100BA00029F48FAF1DAA92E09BAB0BC01FAEA2E051
:100BB000ADABB1E0BBAB05C0E2E0EFAFF1E0FDAB48
:100BC0001BAA8091C201813021F02F8D2330A9F51D
:100BD0002BC0ACEEEA2EA1E0FA2E00E010E03B8D37
:100BE000A32EB12CC501002E02C0959587950A94BD
:100BF000E2F780FF10C023E333E34BEC51E4D7016D
:100C00006D917D918D919C910E941A3AF7016083BC
:100C10007183828393830F5F1F4FF4E0EF0EF11C0B
:100C200003301105F9F6D1CF8091C501813029F447
:100C30002B8D243011F00C942D108CE0E3EAF1E0C0
:100C4000DE01119601900D928A95E1F78FA598A982
:100C500091FD09C09091BF019FA39A30C9F09C35C6
:100C600009F4AFC010C18091C601873018F08DE142
:100C70000C94571090918601981761F3BE016F5F35
:100C80007F4F0E945B1D882311F40C944310E2CF28
:100C9000AB8DA11103C08AE10C945710C10180757E
:100CA0009927892B09F472CF6091DF017091E001DF
:100CB0008091E1019091E2010E94FD3A0E943B384F
:100CC0006730A8F68091DA01843141F0823011F06A
:100CD0000C942F1027FE02C00C942F10BFEA2B2279
:100CE000662319F0615069A703C0E091C601E9A726
:100CF0006EEC71E089A50E945B1D882311F40C94B1
:100D00004310D090DA014090BB015090BC0160903C
:100D1000BD017090BE010EEC11E0F7E9AF2EF1E0DD
:100D2000BF2EE12CF12CFB8D8F2E912CC4010E2CAB
:100D300002C0959587950A94E2F780FF34C024E1BC
:100D4000D21228C0D50158962D913D914D915C91BC
:100D50005B976D917D918D919C910E94C236F801B7
:100D6000268D378D40A151A10E94C236D8016D93C6
:100D70007D938D939C931397B2E0EB16F10499F455
:100D8000A30192010E94C236F801608371838283BD
:100D9000938309C0F801868D978DA0A1B1A18083AE
:100DA0009183A283B383FFEFEF1AFF0A0C5F1F4FFB
:100DB00024E0A20EB11C33E0E316F10409F0B6CF33
:100DC0002FC16B8D662309F466CF4090BB01509014
:100DD000BC016090BD017090BE010CEE11E0A12C31
:100DE000B12CE12CF12C862E912CF501E058FE4F10
:100DF000C4010E2C02C0959587950A94E2F780FFF6
:100E00002BC0A1E0B0E0AC0FBD1FAA0DBB1D2D9102
:100E10003D914D915C916789708D818D928D0E947D
:100E2000C236D8012D913D914D915C910E94C23600
:100E3000F8016083718382839383F2E0EF16F104FB
:100E4000A1F4A30192010E94C236D8016D937D9353
:100E50008D939C93139709C087A590A9A1A9B2A9C6
:100E6000F80180839183A283B383FFEFEF1AFF0A17
:100E700024E0A20EB11C0C5F1F4F33E0E316F10417
:100E800009F0B3CFCCC06F8D633071F48FA18E3178
:100E900009F48BC0853309F4BCC08C3109F0BFC0A4
:100EA0006EEC71E086E084C09B8D992379F3D0903D
:100EB000C3014090BB015090BC016090BD01709097
:100EC000BE01E7E9AE2EE1E0BE2E0CEE11E0DE0140
:100ED00011964D01E12CF12CE92FF0E0FAA7E9A7DA
:100EE00089A59AA50E2C02C0959587950A94E2F7DC
:100EF00080FD0BC0F50180819181A281B381F80151
:100F000080839183A283B3833FC0FFA1F533E1F1D6
:100F1000D11029C0D50158962D913D914D915C91EC
:100F20005B97F40160817181828193810E94C33655
:100F3000D8012D913D914D915C910E94C336F801ED
:100F40006083718382839383F2E0EF16F104E1F40E
:100F5000A30192010E94C336D8016D937D938D93B6
:100F60009C93139711C0F5012081318142815381F7
:100F7000D8016D917D918D919C910E94C336F801AD
:100F80006083718382839383FFEFEF1AFF0A24E06B
:100F9000A20EB11C0C5F1F4F34E0830E911C63E066
:100FA000E616F10409F09CCF71CF6EEC71E087E09A
:100FB0000E945B1D882311F40C9443108B8D8111CA
:100FC00003C019A61F8E2CC020E030E080E090E026
:100FD000AB8D4A2F50E0BA01082E02C07595679577
:100FE0000A94E2F760FD0EC0F901E058FE4F8788D1
:100FF000908CA18CB28CF901E154FE4F8786908AC7
:10100000A18AB28A01962C5F3F4F8330910519F770
:1010100006C08091C001823010F00C94311019A6E6
:10102000B091C001BFA3B03529F4EB8DE1110C9450
:10103000331075C2FF8DF23009F071C22FA121115A
:1010400004C03B8D31116BC22BC020E030E0A90100
:101050006091CA017091CB018091CC019091CD013A
:101060000E94B837882311F40C9435106FA16C38A6
:1010700009F43FC240F46230A9F06330B1F061304E
:1010800009F04DC20AC08FA18E3809F432C208F4AB
:101090002DC28F3809F42AC242C29B8D91113FC2E2
:1010A0001F8E3DC2ABA1A460ABA3BB8DBB2309F4D3
:1010B000F2CDFBA9EF2FF0E0FCA7EBA73DA9232F72
:1010C00030E03CAF2BAF81E090E07C010DA802C086
:1010D000EE0CFF1C0A94E2F70BA802C0880F991FC0
:1010E0000A94E2F7E82AF92A8B2F90E08E219F21BB
:1010F000892B09F4BCC7CF01880F991F880F991F4E
:10110000FC01E154FE4FDC01A058BE4F57962D91D3
:101110003D914D915C915A9765A576A587A590A9BB
:101120000E94C2364B015C018BAD9CAD880F991FAC
:10113000880F991FFC01E154FE4FDC01A058BE4FFF
:1011400057962D913D914D915C915A9765A576A545
:1011500087A590A90E94C2366FAB78AF89AF9AAFCE
:1011600081010078112727FEF2C0E89427F84CE0AF
:1011700050E06CEE71E087E991E00E94233B892BFF
:1011800011F481E294C78091C2018130B1F423E36C
:1011900033E34BEC51E46091E3017091E401809101
:1011A000E5019091E6010E941A3A6093E301709381
:1011B000E4018093E5019093E6014090E3015090B3
:1011C000E4016090E5017090E601A5019401C5017C
:1011D000B4010E941A3A27966CAF7DAF8EAF9FAFD5
:1011E00027972FA938AD49AD5AADCA01B9010E9460
:1011F0001A3A2B966CAF7DAF8EAF9FAF2B9720E046
:1012000030E040E850E4C301B2010E941A3AA30161
:1012100092010E941A3A27962CAD3DAD4EAD5FADBE
:1012200027970E94C2362B962CAD3DAD4EAD5FADDB
:101230002B970E94C2366B017C0120E030E0A901AF
:101240000E94B83787FD15C7C701B6010E94B93A99
:101250006B017C012B962CAD3DAD4EAD5FAD2B9758
:1012600027966CAD7DAD8EAD9FAD27970E94C3369E
:101270000E94B93A9B01AC01C701B60190580E9487
:10128000C2376B017C016FA1633021F4F7FAF0944F
:10129000F7F8F09420E030E0A901C301B2010E9408
:1012A000B83787FF0FC0F7FAF094F7F8F094D3013E
:1012B000C201B0588093E3019093E401A093E5014B
:1012C000B093E6010BA51CA5000F111F000F111F05
:1012D0000D531E4FA70196016FA978AD89AD9AAD48
:1012E0000E941A3A9B01AC01C501B4010E94C236AA
:1012F00020E030E040E05FE30E941A3AD8011B96FC
:101300006D937D938D939C931E970BAD1CAD000F39
:10131000111F000F111F0D531E4FA7019601C5018C
:10132000B4010E941A3A9B01AC016FA978AD89AD56
:101330009AAD0E94C33620E030E040E05FE30E94B7
:101340001A3AF8016387748785879687E8C0D12C9D
:10135000EC20FD20EF2809F48EC6F1EF2F228091BA
:10136000C201813009F47DC0EBA5FCA5EE0FFF1F83
:10137000EE0FFF1FED53FE4FC384D484E584F68443
:10138000A7019601C501B4010E94C2362B013C01A0
:10139000EBADFCADEE0FFF1FEE0FFF1FED53FE4F49
:1013A00083859485A585B6858BA79CA7ADA7BEA789
:1013B0009C01AD016FA978AD89AD9AAD0E94C2368E
:1013C0004B015C01A3019201C301B2010E941A3AD0
:1013D0002B013C01A5019401C501B4010E941A3AF8
:1013E0009B01AC01C301B2010E94C3360E94B93A0D
:1013F0004B015C01A7019601C701B6010E941A3A90
:101400006B017C012BA53CA54DA55EA5CA01B901C8
:101410000E941A3A9B01AC01C701B6010E94C33673
:101420000E94B93A6B017C016093E3017093E4017F
:101430008093E5019093E6019B01AC01C501B401E5
:101440000E94C2364B015C01E894B7F82AE037ED00
:1014500043EA5BE3C501B4010E94DA3918164CF186
:101460005EC09FEBE92E91E0F92EC601002E02C06E
:10147000959587950A94E2F780FF12C023E333E342
:101480004BEC51E4D7011F966D917D918D919C910C
:1014900052970E941A3AF7016787708B818B928B63
:1014A0000F5F1F4FF4E0EF0EF11C03301105E9F65A
:1014B0005BCF20E030E040E05FE3C501B4010E9473
:1014C000DA3918160CF45DCE2FE632E143E85AE320
:1014D000C701B6010E941A3A9B01AC01C501B401D3
:1014E0000E94DA3918160CF44CCE19C02BA12061D9
:1014F0002BA38FA18E58823018F43BA138603BA3F8
:101500006B8D662309F4C7CB4CE050E06CEE71E0C4
:1015100087E991E00E94233B892B09F432CE2BA16D
:1015200021708BA180FF03C0C1018E7D03C0C1016A
:101530008E7D9C7FAF8DA111937E892B09F09DC577
:101540008E01035F1F4F89E0F80111928A95E9F738
:10155000222309F44BC08FA598A9867B892B09F01B
:101560008EC58091BF01853311F0811188C58091AE
:101570008A0190918B01A0918C01B0918D01898B92
:101580009A8BAB8BBC8B9091890180918801892BC0
:101590004091CA015091CB016091CC017091CD0175
:1015A0004D875E876F87788B84608D8B809170010B
:1015B00085FF06C08CEE91E00E94D231811161C599
:1015C000B8018CEE91E00E94E53580911A018111FD
:1015D0005CC50E946624892B09F457C580E280937C
:1015E0001A010E9439120E94E51C4FC580917001BA
:1015F000F090890181FF26C09FA19150933018F08F
:10160000FBA1F064FBA32B8D222339F03F8D3230F8
:1016100021F46BA160686BA315C080E1F81212C0C1
:101620009091800191508BA18074933030F4882385
:1016300049F09BA190629BA305C0811103C0ABA19F
:10164000A062ABA38091DB019091DC01A091DD0150
:10165000B091DE018093930190939401A093950142
:10166000B09396018091C10180938101882311F08C
:1016700088E08D8B8091CA019091CB01A091CC0123
:10168000B091CD0180938E0190938F01A093900132
:10169000B09391018D879E87AF87B88B8090E701CB
:1016A0009090E801A090E901B090EA01A5019401B1
:1016B00060918A0170918B0180918C0190918D01D4
:1016C0000E94B837BBA1B074EB2E811103C0EBA10F
:1016D000E5FF20C0FF2071F0FBA1F7FD0BC0EE205D
:1016E00021F040E050E0BA0102C0B501A4018F2D05
:1016F0000E9412328091E7019091E801A091E901E6
:10170000B091EA0180938A0190938B01A0938C01A0
:10171000B0938D01E1100CC080918A0190918B01F2
:10172000A0918C01B0918D01898B9A8BAB8BBC8B76
:101730008091EB01809392018091C9019091890180
:10174000981751F049895A896B897C890E94123215
:101750008091C901809389019D8980918901892B9C
:101760008D8B8091C801909188019817D1F090914C
:101770001A01923051F02F968FAF2F970E94DE22E0
:101780002F968FAD2F970E94C0028091C8018111C2
:1017900003C01092880105C090918801892B809325
:1017A00088019D8980918801892B8D8B8091BF0153
:1017B000843049F56091DF017091E0018091E10191
:1017C0009091E20120911A012230E9F02C966FAF3E
:1017D0002C972D967FAF2D972F968FAF2F972E9604
:1017E0009FAF2E970E94DE2240E02C966FAD2C9783
:1017F0002D967FAD2D972F968FAD2F972E969FAD5F
:101800002E970E94D2258091C401809384018091FB
:10181000C201809382012F8D233071F58091C50123
:1018200080938501811108C01092F4011092F50196
:101830001092F6011092F701C090F401D090F501DA
:10184000E090F601F090F701A70196016091BB01CD
:101850007091BC018091BD019091BE010E94B8378A
:10186000882351F0C092BB01D092BC01E092BD012F
:10187000F092BE010E940D328091C60190918601C6
:10188000981769F0809386018CE0FE013196A3EAF7
:10189000B1E001900D928A95E1F70E940D3280919E
:1018A000C301809383018091BF018632F1F138F446
:1018B0008C3109F18E31F9F08A3069F04FC08C35E6
:1018C000D1F1863609F441C0883209F047C067E992
:1018D00071E087E02DC06EEC71E089A50E9434268E
:1018E0008091860139A5831339C08CE0EEECF1E0DC
:1018F000A3EAB1E025C08D8981608D8B6F8D662351
:1019000029F0B8018CEE91E00E94E535B8018EEC2B
:1019100091E00E94E5358CE0EEECF1E0A7E9B1E062
:1019200001900D928A95E1F719C067E971E086E0B0
:101930000E94342613C08CE0ECEEF1E0AFEAB1E097
:1019400001900D928A95E1F707C08CE0EFEAF1E093
:10195000DF011D928A95E9F70E940D328091C00146
:1019600080938001803509F41EC3BF8DB23009F029
:101970001AC3813021F4BE01635F7F4F06C081111D
:1019800009C08D8981608D8BB8018CEE91E00E9439
:10199000E53500C38250823008F095C28091E301A2
:1019A0009091E401A091E501B091E6018F8F98A399
:1019B000A9A3BAA3ABA994E0A99F70011124F701D0
:1019C000E956FE4FF8A7EFA3970122533E4F3AA7DF
:1019D00029A7D9014D905D906D907C902081318137
:1019E00042815381C301B2010E94C3366FA778AB15
:1019F00089AB9AABEDA9B4E0EB9F8001112498016B
:101A000029563E4F3CAB2BABC80182539E4F9EAB39
:101A10008DABDC018D909D90AD90BC90F901208143
:101A2000318142815381C501B4010E94C3366FAB3D
:101A300078AF89AF9AAF77FA709477F87094D50140
:101A4000C401B0588B8F9C8FAD8FBE8FF701E451CE
:101A5000FE4F2FA538A949A95AA9608171818281B9
:101A600093810E94C2366B017C01F801E451FE4F64
:101A70002FA938AD49AD5AAD6081718182819381C2
:101A80000E94C2364B015C01A7019601C301B2015D
:101A90000E941A3A6BA77CA78DA79EA7A501940167
:101AA0006B8D7C8D8D8D9E8D0E941A3A9B01AC01B1
:101AB0006BA57CA58DA59EA50E94C3366BA77CA7B0
:101AC0008DA79EA7A5019401C301B2010E941A3AF5
:101AD0004B015C01A70196016B8D7C8D8D8D9E8DD8
:101AE0000E941A3A9B01AC01C501B4010E94C236A2
:101AF0002BA53CA54DA55EA50E9442376B017C013C
:101B00009BA192FF13C02DEB37E346E055EBC701D5
:101B1000B6010E94DA3987FD1DC02BED3FE049EC8C
:101B200050E4C701B6010E94C23612C02DEB37E364
:101B300046E055E3C701B6010E94B837181654F0C5
:101B40002BED3FE049EC50E4C701B6010E94C336DB
:101B50006B017C018090640190906501A09066010A
:101B6000B09067012F8D38A149A15AA1CA01B901CE
:101B70000E94C336A50194010E94C2369B01AC01AC
:101B8000C501B4010E941A3A0E94B93A4B015C01A6
:101B900020E030E040E05FE3C701B6010E941A3A5E
:101BA0002F8D38A149A15AA10E941A3A9F77A50109
:101BB00094010E94C2370E94A7380E943B387CA73C
:101BC0006BA7DB01AB2B09F4D6CE1D894B01A12CF1
:101BD000B12C13FF12C0C501B4010E946A389B01E9
:101BE000AC016D857E858F8598890E941A3A6D8734
:101BF0007E878F87988B177F1D8BC501B4010E944C
:101C00006A384B015C019B01AC01C701B6010E941F
:101C1000C2376BA37CA38DA39EA3EFADB4E0EB9F73
:101C2000C00111248C0109561E4FFC01E451FE4FE6
:101C3000D8012D913D914D915C916081718182819E
:101C400093810E94C236A50194010E94C237279653
:101C50006CAF7DAF8EAF9FAF27972BA13CA14DA15D
:101C60005EA1CA01B9010E941A3A9B01AC0160E071
:101C700070E080E090E40E94C2366B017C012BEAA8
:101C80003AEA4AE25EE36BA17CA18DA19EA10E948B
:101C90001A3A4B015C0120E030E040E850E4C70113
:101CA000B6010E94C3369B01AC01C501B4010E947C
:101CB0001A3A6BAF7CAF8DAF9EAF20E030E040E0D2
:101CC0005FE3C701B6010E941A3A23966CAF7DAF5D
:101CD0008EAF9FAF23971F8E22242394312CEBA528
:101CE000FCA52E163F0609F446CEBF8DBC3008F089
:101CF00044C023962CAD3DAD4EAD5FAD23976B8DAB
:101D00007C8D8D8D9E8D0E941A3A6B017C012BADCE
:101D10003CAD4DAD5EADC301B2010E941A3AA701C0
:101D200096010E94C3367B016C0123962CAD3DAD1C
:101D30004EAD5FAD2397C301B2010E941A3A4B0129
:101D40005C012BAD3CAD4DAD5EAD6B8D7C8D8D8D55
:101D50009E8D0E941A3A9B01AC01C501B4010E94FC
:101D6000C2362B013C01EF8DEF5FEF8F470156012B
:101D70008B8E9C8EAD8EBE8E65C0B10180E090E0F2
:101D80000E946A382BA13CA14DA15EA10E941A3A83
:101D90006B017C010E94BD376B8F7C8F8D8F9E8F76
:101DA000C701B6010E94AB3A4B015C01A9A5BAA5D7
:101DB000CD90DD90ED90FC90F7FAF094F7F8F09468
:101DC000ADA9BEA98D919D910D90BC91A02D8F8F35
:101DD00098A3A9A3BAA32B8D3C8D4D8D5E8DC70111
:101DE000B6010E941A3A2B013C01A50194016F8DA6
:101DF00078A189A19AA10E941A3A9B01AC01C30162
:101E0000B2010E94C3362B013C01A5019401C70118
:101E1000B6010E941A3A6B017C012B8D3C8D4D8DD1
:101E20005E8D6F8D78A189A19AA10E941A3A9B01BB
:101E3000AC01C701B6010E94C2366B8F7C8F8D8FBB
:101E40009E8F1F8EA30192016FA578A989A99AA9D7
:101E50000E94C336EFA1F8A56083718382839383C8
:101E60002B8D3C8D4D8D5E8D6FA978AD89AD9AAD72
:101E70000E94C336ABA9BCA96D937D938D939C93AF
:101E8000139727962CAD3DAD4EAD5FAD2797F8016A
:101E900060817181828193810E94C336D8016D93E4
:101EA0007D938D939C931397BE01635F7F4F87E96A
:101EB00091E00E94E53580911B0181116BC0BFEF5D
:101EC0002B1A3B0A0CCF8D8984608D8B80911A016F
:101ED000823009F45FC00E94DE2280911B018111D3
:101EE00062C0FBA1F071FF2E10921F012BA123FBFA
:101EF000882780F90E94841D86B18072909100012C
:101F0000891749F084E00E9491110E94D22180E05B
:101F10000E94841D48C0B8018CEE91E00E94E53516
:101F200081E08093190182E00E94A1110E94D221D8
:101F300080911B01811137C080911A018111F6CF68
:101F400080911901813081F4FF2051F08CE0E1E0B3
:101F5000F1E0ADE0B1E001900D928A95E1F707C0A4
:101F600085E00E94911103C081E080931F011092CF
:101F7000190180E00E94841D0E94D2210E946A1AE9
:101F80000E9476240E94D1230E94363680911F0140
:101F9000811186C08CE0ECEEF1E0A7E9B1E00190A0
:101FA0000D928A95E1F78091C7018093870188237C
:101FB00009F47DC00E94DE228091870190911A0170
:101FC000833041F49230D1F188E00E94A1110E9447
:101FD000D22134C081E0809380011092840110925C
:101FE0008301109281011092860110928901109252
:101FF000880184E68093210180932201809323014C
:10200000923091F063EA71E080E00E945B1D8823CA
:10201000D1F10E940D3240E050E0BA0180E00E9410
:10202000FD1C80E00E94C00283EA92E00E94C2236D
:102030008AE392E00E94C2230E94C829109287017D
:102040002DC081E034C082E032C088E130C089E137
:102050002EC084E02CC08BE12AC085E228C084E138
:1020600026C08EE124C08FE122C086E120C080E23C
:102070001EC082E21CC083E21AC084E218C080E164
:1020800016C08FE014C087E012C08CE0ECEEF1E0E7
:10209000A7E9B1E001900D928A95E1F780E007C0D1
:1020A0000E94130280CF1A8E1BA20C940703C25BFE
:1020B000DF4F0FB6F894DEBF0FBECDBFDF91CF91DB
:1020C0001F910F91FF90EF90DF90CF90BF90AF9056
:1020D0009F908F907F906F905F904F903F902F9048
:1020E00008958093B300811104C08091B0008F7770
:1020F00003C08091B00080688093B00008954F9233
:102100005F926F927F928F929F92AF92BF92CF9287
:10211000DF92EF92FF92CF936B017C01C09123017C
:1021200080906C0190906D01A0906E01B0906F0155
:10213000409068015090690160906A0170906B0155
:10214000A3019201C501B4010E94DA3987FF1AC0C8
:102150006C2F70E080E090E00E946C382AE037ED50
:1021600043E25CE30E941A3A9B01AC01C701B6014D
:102170000E941A3A6B017C01A30192010E94DA3994
:1021800087FD0AC0409227015092280160922901E0
:1021900070922A018FEF47C0A5019401C701B601D3
:1021A0000E94B8371816E4F020E030E0A901C7011A
:1021B000B6010E94B837811109C010922701109210
:1021C00028011092290110922A012DC08092270126
:1021D00090922801A0922901B0922A0181E023C0A7
:1021E000C0922701D0922801E0922901F0922A01A1
:1021F000A5019401C701B6010E94C23620914F0586
:102200003091500540915105509152050E941A3A63
:102210000E94A73820E030E040E85FE30E94C33628
:102220000E943B38862FCF91FF90EF90DF90CF90A8
:10223000BF90AF909F908F907F906F905F904F90E6
:102240000895CF93DF93CFE0D7E08991882319F0E9
:102250000E942328FACFDF91CF910895CF93DF9387
:1022600021E5829FC0011124EC01DD5F40E550E0D3
:10227000BE018FE097E00E941902892B69F4109249
:102280000F070E94DE2240E550E06FE077E0CE01CC
:102290000E94810280E001C081E0DF91CF9108952A
:1022A000CF93DF93C0E08C2F0E942E1181110EC0BE
:1022B00010920F078EE30E9423280E9421118AE3C7
:1022C0000E94232887E00E94602812C080910F0797
:1022D000882371F00E94CD02D82F8EE30E9423281C
:1022E0000E9421118AE30E9423288D2F0E946C28CE
:1022F000C13011F0C1E0D7CFDF91CF9108952FB752
:10230000F89490914E05892B80934E052FBF089528
:102310002FB7F89490914D05892B80934D052FBFD1
:1023200008959FB7F89480934C059FBF08952FB7E9
:10233000F89490914B058095892380934B052FBF8E
:1023400008952FB7F89490914B05892B80934B05F6
:102350002FBF0895AF92BF92CF92DF92EF92FF927C
:102360000F931F93CF93DF9300D000D0CDB7DEB78C
:102370005B012BE2E22E21E0F22E8C016B018CE05E
:10238000C80ED11CF50161917191819191915F010C
:10239000F70121913191419151917F0129833A8334
:1023A0004B835C830E946C3829813A814B815C812C
:1023B0000E94C237F80161937193819391938F01C9
:1023C000AC14BD04F9F60F900F900F900F90DF91B1
:1023D000CF911F910F91FF90EF90DF90CF90BF9022
:1023E000AF90089596B1892F877049F0892F809515
:1023F000817091FF826092FD03C08460089580E047
:1024000008951F920F920FB60F9211242F933F93AE
:102410004F935F936F937F938F939F93AF93BF93EC
:10242000EF93FF930E94F211882391F080FF03C085
:102430000E9403260DC082FF04C080914B0582607C
:1024400005C081FF05C080914B05886080934B05D6
:10245000FF91EF91BF91AF919F918F917F916F917C
:102460005F914F913F912F910F900FBE0F901F9052
:1024700018952F923F924F925F926F927F928F9218
:102480009F92AF92BF92CF92DF92EF92FF920F9303
:102490001F93CF93DF93CDB7DEB7EE970FB6F894C7
:1024A000DEBF0FBECDBF80911E0180FD70C7909131
:1024B000790580917A05981709F469C78091020619
:1024C00090910306892B09F03BC310911E0112FF66
:1024D00009C080911A0522E3289FC001112486506B
:1024E0009E4F02C00E9466249093030680930206CA
:1024F00020900206309003062114310409F447C7E6
:1025000000911C05902F917000FF03C010921C05D4
:10251000FEC080911B058F5F853009F0982F909346
:102520001B05E92EF12C32E13E9DF0013F9DF00D9F
:102530001124E855FA4FF093A705E093A605D101C1
:1025400050968C915097808B4D915D916D917C91BF
:10255000DB01CA0123E0880F991FAA1FBB1F2A9520
:10256000D1F780839183A283B383D10114964D91D7
:102570005D916D917C911797DB01CA0133E0880F63
:10258000991FAA1FBB1F3A95D1F784839583A68311
:10259000B783D10118964D915D916D917C911B97F8
:1025A000DB01CA0143E0880F991FAA1FBB1F4A9590
:1025B000D1F780879187A287B387D1011C964D916F
:1025C0005D916D917C911F97DB01CA0153E0880FEB
:1025D000991FAA1FBB1F5A95D1F784879587A68795
:1025E000B787F10164857585868597850E946A386D
:1025F0006093210570932205809323059093240511
:10260000D1015E962D913D914D915C9191970E94E3
:10261000C2379B01AC01609325057093260580931A
:1026200027059093280560E070E080EA9FE30E9410
:10263000C2376093290570932A0580932B059093E8
:102640002C0510921D0510921E0510921F05109268
:10265000200511FD02C003FF1DC060913A05709175
:102660003B0580913C0590913D0560933205709348
:10267000330580933405909335059B01AC010E948E
:102680001A3AF101628B738B848B958B077F0093D1
:102690001C0511C0D10152966D917D918D919C9137
:1026A00055970E94B93A6093320570933305809331
:1026B000340590933505B2E1BE9DC001BF9D900DDC
:1026C0001124FC01E855FA4F7F01118A80917001B5
:1026D00081FF1DC0D10151968C91519785FF17C084
:1026E0009A962D913D914D915C919D9760E070E09F
:1026F00080E89FE30E94C2376093460570934705C8
:10270000809348059093490521E0F701218B1092B1
:102710002E0510922F051092300510923105D1012F
:102720005A968D919D910D90BC91A02D89839A838D
:10273000AB83BC839C01AD0160E070E080E09FE36F
:102740000E94C2374B015C01F101468C578C60A09E
:1027500071A011FF4BC0F2E0F0932D05D10152960C
:10276000CD90DD90ED90FC905597A70196010E94C9
:102770001A3A9B01AC01C301B2010E94C2364B015F
:102780005C0120E030E0A9010E94B83787FF1DC03E
:1027900029813A814B815C81CA01B9010E94C3360B
:1027A000A30192010E941A3A9B01AC01C701B60134
:1027B0000E94C2360E94B93A60933A0570933B0575
:1027C00080933C0590933D05B8C180922E05909270
:1027D0002F05A0923005B092310510923A05109263
:1027E0003B0510923C0510923D05A7C110922D05A6
:1027F00040923E0550923F0560924005709241051F
:1028000012FF0CC010923A0510923B0510923C0545
:1028100010923D05C12CD12C760124C0E091F90124
:10282000EF5FE03109F4E0E080911A05E81759F014
:10283000B2E3BE9FF0011124E650FE4FC288D38858
:10284000E488F58803C0C12CD12C7601C701B601FC
:102850000E94B93A60933A0570933B0580933C051A
:1028600090933D05C1010E94F323698B7A8B8B8B7A
:102870009C8B9B01AC010E941A3A6D837E838F83EF
:102880009887D10152962D913D914D915C9155972C
:1028900029873A874B875C879B01AC0169857A85DC
:1028A0008B859C850E94DA3918160CF070C02D813A
:1028B0003E814F81588569857A858B859C850E94EC
:1028C000C2369B01AC01C501B4010E941A3A9B01BA
:1028D000AC01C301B2010E94C23660933E05709301
:1028E0003F05809340059093410520E030E0A90129
:1028F0000E94B83718163CF1B2E0B0932D0529813B
:102900003A814B815C81CA01B9010E94C336A3019F
:1029100092010E941A3A9B01AC0169857A858B85E8
:102920009C850E94C2360E94B93A60933A05709322
:102930003B0580933C0590933D0580911C05886084
:1029400080931C05FAC0A70196016D817E818F815D
:1029500098850E94C2369B01AC01C501B4010E945A
:102960001A3A60934205709343058093440590930F
:10297000450529893A894B895C892093360530932E
:102980003705409338055093390533E0BBC0A701A4
:10299000960169857A858B859C850E94C2369B014C
:1029A000AC01C501B4010E941A3A9B01AC01C301FC
:1029B000B2010E94C33620E030E040E05FE30E94B5
:1029C0001A3A6D877E878F87988B20E030E0A901C7
:1029D0000E94DA3918160CF098C0A30192016D8597
:1029E0007E858F8598890E94B83787FF8AC0A701A6
:1029F00096016D817E818F8198850E94C2369B01F0
:102A0000AC01C501B4010E941A3A6093420570936B
:102A1000430580934405909345052D853E854F855C
:102A200058890E94B83787FF3BC089899A89AB894A
:102A3000BC898093360590933705A0933805B093F1
:102A400039052D813E814F81588569857A858B8531
:102A50009C850E94B837811104C091E090932D05A8
:102A60006CC029853A854B855C856D817E818F811F
:102A700098850E94C2369B01AC01C501B4010E9439
:102A80001A3A9B01AC01C301B2010E94C2366093A5
:102A90003E0570933F0580934005909341054DC0DE
:102AA0002D853E854F85588920933E0530933F05FF
:102AB00040934005509341052093420530934305D0
:102AC000409344055093450529813A814B815C81AF
:102AD000CA01B9010E94C3362D853E854F855889AC
:102AE0000E941A3AA70196010E94C3360E94B93A81
:102AF00060933605709337058093380590933905B8
:102B00001CC032E030932D0518C010923E05109283
:102B10003F05109240051092410580913A05909131
:102B20003B05A0913C05B0913D05809336059093FF
:102B30003705A0933805B0933905186010931E012E
:102B40008091A505482F50E05A87498787E0849FE8
:102B5000F001859FF00D1124E558FA4F80911B0577
:102B60008483A0910206B0910306BEAFADAF5E961E
:102B7000BC91BEA3EDADFEADF78DFFA3ADADBEAD77
:102B80009096BC91B8A7EDADFEADF1A1F9A720914B
:102B9000290530912A0540912B0550912C056EA1F5
:102BA0007FA18B2F9F2F0E94C2366AAB7BAB8CAB71
:102BB0009DAB20E030E0A9010E94B83787FF04C038
:102BC0001AAA1BAA1CAA1DAA20913E052D8330918A
:102BD0003F053D8740914005498B509141055D8BF4
:102BE000809136058A8F909137059B8FA09138058B
:102BF000AC8FB0913905BD8F609032057090330570
:102C00004090340550903505E0914205EAA7F091D7
:102C10004305FBA7209144052CA7309145053DA70E
:102C200040912D05498350912E055EA780912F0577
:102C30008FA79091300598ABA0913105A9ABB091C9
:102C40003A05BEABE0913B05EFABF0913C05F8AF28
:102C500020913D0529AF2EA03FA008A519A58EE320
:102C6000C82E83ECD82E8EE2E82E89E3F82E1E8A39
:102C70001F8A188E198ECE8EDF8EE8A2F9A2998156
:102C8000913009F4E7C008F474C0ADADBEAD5A96FA
:102C90002D913D914D915C915D97933009F009C163
:102CA000C701B6010E941A3A4B015C0120E030E0F6
:102CB00040E05FE30E941A3A9B01AC01B301C201FC
:102CC0000E94C2369B01AC01C701B6010E941A3AAC
:102CD0006AA37BA38CA39DA39B01AC01B101C80196
:102CE0000E94C2361B018C012D813D8549895D8979
:102CF0000E94B83787FD0BC020E030E0A9016AA12F
:102D00007BA18CA19DA10E94B83718165CF12D8182
:102D10003D8549895D896EA17FA188A599A50E94FD
:102D2000C2369B01AC010E94C3366B017C012A8D27
:102D30003B8D4C8D5D8DB301C2010E94C3369B015A
:102D4000AC01C701B6010E94C2376B017C016A8CDD
:102D50007B8C4C8C5D8C2D803D8409891D89B1E074
:102D6000B98311C1A5019401B301C2010E94C23609
:102D70006EC0EDADFEAD228D338D448D558DC701F6
:102D8000B6010E941A3A4B015C0120E030E040E0BD
:102D90005FE30E941A3A9B01AC01B301C2010E9499
:102DA000C3369B01AC01C701B6010E941A3A9B01D0
:102DB000AC01B101C8010E94C2361B018C012D81FA
:102DC0003D8549895D890E94B83787FF3AC02D81CA
:102DD0003D8549895D896EA17FA188A599A50E943D
:102DE000C2369B01AC010E94C3366B017C012A8D67
:102DF0003B8D4C8D5D8DB301C2010E94C3369B019A
:102E0000AC01C701B6010E94C2376B017C012AA543
:102E10003BA54CA55DA56D817D8589899D890E9415
:102E2000B837811103C0F2E0F98302C021E02983A1
:102E30006A8C7B8C4C8C5D8C2D803D8409891D892E
:102E4000A2C0A5019401B301C2010E94C3363B0197
:102E50002C0199C0A70196016A8D7B8D8C8D9D8D6B
:102E60000E941A3A9B01AC01B101C8010E94C2360E
:102E70005B014C012AA53BA54CA55DA50E94B83776
:102E800087FF7FC02AA53BA54CA55DA5B101C80160
:102E90000E94C2362A8D3B8D4C8D5D8D0E94C237BB
:102EA0006B017C012AA43BA40CA51DA532E039834B
:102EB0006AC0C701B6010E941A3A4B015C019B012E
:102EC000AC01B301C2010E94DA3918169CF520E06A
:102ED00030E040E05FE3C501B4010E941A3A9B0173
:102EE000AC01B301C2010E94C2369B01AC01C70113
:102EF000B6010E941A3A9B01AC01B101C8010E94BF
:102F0000C2366AA37AAF8BAF9CAF2EA53FA548A966
:102F100059A90E94DA3918166CF4A5019401B3017D
:102F2000C2010E94C2363B012C012AA03AAC0BAD73
:102F30001CAD29C02EA53FA548A959A9B101C801BA
:102F40000E94C2369B01AC010E94C3366B017C011A
:102F50002EA93FA948AD59ADB301C2010E94C336A5
:102F60009B01AC01C701B6010E94C2376B017C0115
:102F70006EA87FA848AC59AC2EA43FA408A919A9F3
:102F800002C015018401A70196016E897F89888D91
:102F9000998D0E94C3366E8B7F8B888F998F2E8D73
:102FA0003F8D48A159A10E94B83787FF09C02E89DB
:102FB0003F89488D598D6E8D7F8D88A199A131C033
:102FC0002AA93BA94CA95DA9B101C8010E94DA391F
:102FD0001816ACF0C301D2018093320590933305EB
:102FE000A0933405B0933505B981B0932D05E091D8
:102FF000A605F091A7059189911134C02FC02EE349
:1030000033EC4EE259E36E8D7F8D88A199A10E9429
:10301000C3366E8F7F8F88A399A32E893F89488DF1
:10302000598D0E94C2366B017C012EA53FA548A98F
:1030300059A9B101C8010E94DA3918160CF41FCE43
:10304000C301D2018093320590933305A0933405D8
:10305000B0933505E981E0932D05C9CF80911E011C
:1030600083FF3FC0ADADBEAD51968C91519780733B
:1030700049F19E96CD90DD90ED90FC90D1979923EB
:10308000D1F0209146053091470540914805509177
:103090004905609132057091330580913405909116
:1030A00035050E941A3A9B01AC01C701B6010E9486
:1030B0001A3A6B017C01C701B6010E947F10809310
:1030C0004A050AC010922701109228011092290186
:1030D00010922A0110924A0580911E01877F8093E9
:1030E0001E0127E0E985FA852E9FA0012F9F500D34
:1030F0001124CA0185589A4F9E838D8380914A0579
:10310000AD81BE8116968C932091250530912605C0
:103110004091270550912805B101C8010E941A3A33
:103120002B013C010E94A1376B017C0160912105BC
:103130007091220580912305909124050E94A1376A
:103140004B015C01A70196010E94C2360E943B38E8
:1031500069837A838B839C8329813A81ED81FE8107
:1031600031832083232B41F480911E0181FF04C011
:10317000816080931E010BC120911D0530911E05B9
:1031800040911F05509120056E897F89888D998D0A
:103190000E94C3366D837E838F839887A30192013B
:1031A000C501B4010E94C2369B01AC016D817E81D4
:1031B0008F8198850E94C2374B015C0120EC31EE73
:1031C00044E65EE40E941A3A0E94A1370E943B380E
:1031D000603D57E075078105910560F427E0A985FA
:1031E000BA852A9FF0012B9FF00D1124E558FA4F64
:1031F000158254C0603A3FE073078105910568F479
:10320000A7E049855A85A49FF001A59FF00D1124E0
:10321000E558FA4FB1E0B5831FC06034EFE17E0797
:103220008105910568F447E029853A85429FF001C0
:10323000439FF00D1124E558FA4F52E055830CC01E
:1032400027E0A985BA852A9FF0012B9FF00D112454
:10325000E558FA4F33E03583A7E049855A85A49FA6
:10326000F001A59FF00D1124E558FA4F2581022E9B
:1032700004C096958795779567950A94D2F749810A
:103280005A8102C0440F551F2A95E2F751834083AB
:103290006115710551E08507910568F427E0A9855E
:1032A000BA852A9FF0012B9FF00D1124E558FA4FA3
:1032B0007383628304C04FEF5FEF53834283809137
:1032C0007A058093A5058F5F863019F080937A0583
:1032D00002C010927A05E0910206F0910306C10146
:1032E000D801868F978FA0A3B1A3C0922105D09259
:1032F0002205E0922305F0922405A3019201C70163
:10330000B6010E94C236A50194010E941A3A609348
:103310001D0570931E0580931F0590932005209135
:103320002E0530912F054091300550913105B101A6
:10333000C8010E94B8378111BAC820E030E0A90165
:10334000B101C8010E94DA3990911E01181614F0DB
:1033500092FF04C0916090931E0119C01092030661
:10336000109202069091F90180911A05891709F4CB
:103370009EC881E0890F803109F480E02091F80136
:10338000921302C08093F8018093F90190C8EE96E1
:103390000FB6F894DEBF0FBECDBFDF91CF911F9166
:1033A0000F91FF90EF90DF90CF90BF90AF909F90E4
:1033B0008F907F906F905F904F903F902F900895E7
:1033C000CF93DF93C0910206D09103062097C9F0F6
:1033D00080911C05816080931C056091320570917D
:1033E000330580913405909135059B01AC010E9415
:1033F0001A3A6A8B7B8B8C8B9D8B109203061092F2
:103400000206DF91CF91089580915C01682F90E0D2
:1034100020915D01422F80FD94E0822F817020FD7C
:1034200080E261FD986041FD806462FD906142FD33
:103430008068909353058093540508951F920F92CE
:103440000FB60F9211248F939F938BB190915305D8
:103450009C71837E892B8BB915BC9F918F910F90A6
:103460000FBE0F901F90189580916F008D7F8093F5
:103470006F0080918100887F81608093810010922D
:10348000550580915E0190911A018F3F39F420918A
:103490004C05211103C0903881F402C0943069F0CA
:1034A00090E0009741F0EFE9FFE03197F1F700C0BD
:1034B00000000197F6CF81E001C080E0909170019B
:1034C00092FF02C091E08927882311F0289A08957D
:1034D00028980895CF93DF930E94341A80E3EBE19C
:1034E000F5E0DF011D928A95E9F7C6E5D5E083E2B4
:1034F000FE0111928A95E9F71092030610920206D6
:10350000109279051092A50581E080937A051092BA
:1035100055050E94041A809154058F878BB1837ED4
:1035200090915305892B8BB98BB18F719091540574
:10353000892B8BB9DF91CF9108951F920F920FB60F
:103540000F9211242F933F934F935F936F937F9329
:103550008F939F93AF93BF93EF93FF938091550504
:10356000811122C28BB190916505907E8F71892B5C
:103570008BB98BB1837E90916405892B8BB9809137
:10358000630586BD82E085BD81E080935505789412
:103590008091770590917805892B09F0BFC08091C3
:1035A00079059091A505981709F4A4C0E0917905D3
:1035B0002E2F30E087E0E89FF0011124E558FA4F04
:1035C000F0937805E0937705828193819093890049
:1035D0008093880080819181909373058093720518
:1035E000E481809174058E1761F1E093740582E1A6
:1035F000E89FF0011124E855FA4FF0937605E09327
:10360000750584859585A685B785B695A795979503
:10361000879580935E0590935F05A0936005B093B6
:10362000610580935A0590935B05A0935C05B09368
:103630005D058093560590935705A0935805B09368
:103640005905A0917505B091760590915405509655
:103650008C91509789278093650587E0829FF001C0
:10366000839FF00D1124E558FA4F25814D915D910E
:103670006D917C911397022E04C0769567955795AE
:1036800047950A94D2F74093660550936705609377
:1036900068057093690514964D915D916D917C91CB
:1036A0001797022E04C076956795579547950A940B
:1036B000D2F740936A0550936B0560936C05709345
:1036C0006D0518968D919D910D90BC91A02D04C013
:1036D000B695A795979587952A95D2F780936E050D
:1036E00090936F05A0937005B093710586810E9439
:1036F000711014C00E94341AE0917505F09176059E
:103700008189882339F01092B3008091B0008F77BF
:103710008093B00084E00E94A11146C180911901FC
:103720008130B1F486B1807290910001891781F0E7
:10373000109219018CE0E1E0F1E0ADE0B1E0019020
:103740000D928A95E1F780914B05806480934B053B
:103750001092640540916605509167056091680577
:10376000709169058091560590915705A091580573
:10377000B0915905840F951FA61FB71F809356055A
:1037800090935705A0935805B0935905E09175059E
:10379000F0917605448555856685778548175907E4
:1037A0006A077B0768F524E0209364054485558506
:1037B00066857785841B950BA60BB70B8093560502
:1037C00090935705A0935805B0935905208980918F
:1037D000010190910201A0910301B091040125FF24
:1037E00004C00197A109B10903C00196A11DB11D33
:1037F0008093010190930201A0930301B09304010F
:1038000040916A0550916B0560916C0570916D0552
:1038100080915A0590915B05A0915C05B0915D0582
:10382000840F951FA61FB71F80935A0590935B05C1
:10383000A0935C05B0935D054485558566857785C5
:10384000481759076A077B0778F5209164052860B7
:10385000209364054485558566857785841B950B83
:10386000A60BB70B80935A0590935B05A0935C055C
:10387000B0935D0520898091050190910601A0918A
:103880000701B091080126FF04C00197A109B10901
:1038900003C00196A11DB11D8093050190930601FF
:1038A000A0930701B093080140916E0550916F05F8
:1038B000609170057091710580915E0590915F0532
:1038C000A0916005B0916105840F951FA61FB71FD9
:1038D00080935E0590935F05A0936005B0936105AA
:1038E0004485558566857785481759076A077B079C
:1038F00078F5209164052061209364054485558501
:1039000066857785841B950BA60BB70B80935E05A8
:1039100090935F05A0936005B09361052089809125
:10392000090190910A01A0910B01B0910C0127FFB0
:1039300004C00197A109B10903C00196A11DB11DE1
:103940008093090190930A01A0930B01B0930C019D
:1039500080911A01843039F490912001809164059E
:103960008923809364058091720590917305019776
:103970009093730580937205892B69F410927805F2
:1039800010927705809179058F5F80937905863055
:1039900011F410927905909153058091640589275F
:1039A0008093640510925505FF91EF91BF91AF91FF
:1039B0009F918F917F916F915F914F913F912F9147
:1039C0000F900FBE0F901F9018958091700182FF8D
:1039D00002C0289A01C028988091530580936405FD
:1039E00080915B01880F845081958093630580915D
:1039F0006F00826080936F00089590911B01911178
:103A000026C081110EC01092270110922801109239
:103A1000290110922A018091B0008F778093B00025
:103A200014C0803111F42D9801C02D9A909170012D
:103A300091FF05C0803219F440E050E0BA01CB019B
:103A4000BA010E947F100E94711010922501089502
:103A5000CF93DF93239AC0EBD0E083E0888384E0A8
:103A60008093B100259A20916C0130916D014091B5
:103A70006E0150916F0160916801709169018091B0
:103A80006A0190916B010E94C2369B01AC0160E01B
:103A900070E08EE793E40E94C23760934F05709305
:103AA0005005809351059093520588818F778883C4
:103AB000DF91CF9108951F93CF93DF93182FEB01E0
:103AC0008DE0189FB00111247E5F4CE050E0CE01E4
:103AD0000E941902892B59F48CE0FE0111928A95FB
:103AE000E9F7BE01812F0E94342680E001C081E009
:103AF000DF91CF911F9108950E946624892B19F0C0
:103B000082E00C94A111089510920001909170012F
:103B100097FD03C090E290930001882331F09091CB
:103B2000000180E2892780930001089520917001AF
:103B300020FF08C02BE832E441E25DE30E941A3A1C
:103B400041E001C040E00C94EF223F924F925F921F
:103B50006F927F928F929F92AF92BF92CF92DF929D
:103B6000EF92FF920F931F93CF93DF93CDB7DEB702
:103B7000A4970FB6F894DEBF0FBECDBF10914C05D1
:103B8000112391F181E080931A018EEA92E00E9464
:103B9000C223812F0E949C230E945C2885EF91E024
:103BA000019739F0EFE9FFE03197F1F700C000002D
:103BB000F7CF1150123030F08FB7F89410924C05B7
:103BC0008FBF12C083EA92E00E94C22381E992E093
:103BD0000E94C2230E94C82980E10E94971180910F
:103BE0004B0584FFFCCFE8CF10914B05112309F45E
:103BF000BEC214FF04C081E080931B01BBC310FF51
:103C0000C0C18CE0E1E0F1E0DE01599601900D9237
:103C10008A95E1F7BE01675E7F4FCE010D960E9447
:103C2000AA118CE30E94232880911A018830E1F0C8
:103C300058F4813099F1A8F0823099F1843009F07C
:103C400043C089EF92E03EC0803229F118F4803100
:103C500071F03AC0803441F18038B1F581EE92E0E4
:103C600031C08CE093E02EC088E093E02BC08091BF
:103C70001C0187FD10C082E093E00E94C223809166
:103C80001C0180FF06C080E31AC082FF17C085FFB9
:103C9000FACF81E314C08EEF92E014C083EF92E07C
:103CA00011C08DEE92E00EC087EE92E00E94C2231A
:103CB00080911C0183FFE9CF83E301C082E30E946E
:103CC000232802C00E94C22380915F01F82FF17067
:103CD000BF2E80FD15C04090BB015090BC0160908C
:103CE000BD017090BE0143EA842E41E0942E9E01F6
:103CF0002F5F3F4F7901CE010D966C0100E02CC083
:103D000080912601882339F38AED92E03FC0A30118
:103D100092010E94C336F70160837183828393838B
:103D2000B110F2CFF7012081318142815381F60138
:103D300060817181828193810E94C236F601608325
:103D40007183828393830F5FF4E0EF0EF11C24E014
:103D5000C20ED11C0330B1F0F401619171918191D7
:103D600091914F0120853185428553850E94C3364C
:103D7000F7016083718382839383023041F2BB2019
:103D800089F2E1CFB110C0CF83ED92E00E94C2234F
:103D9000CE010D960E943F2880915F0181FF1FC0D8
:103DA0008EEC92E00E94C22390911A058091F90155
:103DB000981710F0815F01C08150891B0E949C23DD
:103DC0008CE20E9423288091A2069091A306981766
:103DD00010F0805801C08150891B0E949C2389ECFF
:103DE00092E00E94C22380911A018C7749F0609181
:103DF000320570913305809134059091350503C0EB
:103E000060E070E0CB010E94961D8CE20E942328A6
:103E100060912701709128018091290190912A01D8
:103E200040E00E94EF220E94FE01F82E0E94F21153
:103E3000082F86B1982F907280910001E92EE82614
:103E40008F2D802B8E2959F184EC92E00E94C223A1
:103E5000EE2019F080E50E942328FF2079F0F0FE83
:103E600003C088E50E942328F1FE03C089E50E9473
:103E70002328F2FE03C08AE50E942328002379F05C
:103E800000FF03C082E50E94232801FF03C088E4ED
:103E90000E94232802FF03C083E50E94232880910B
:103EA0002601882321F081508093260118C080913B
:103EB0001A018C7711F08DE101C089E08093260111
:103EC00080912501811103C081E0809325018EEB53
:103ED00092E00E94C223CE0101960E943F280091E9
:103EE0002501002321F001500093250142C080915B
:103EF0001A018C7711F083E101C089E080932501DC
:103F000089EB92E00E94C223809121010E949C23B0
:103F10008CE20E942328809122010E949C238CE243
:103F20000E942328809123010E949C238091B0004D
:103F300087FF05C02D9902C001E001C002E0439B4C
:103F400003C0FF24F39403C0002399F0F12C85EB08
:103F500092E00E94C223002339F0013011F483E57E
:103F600001C083E40E942328FF2019F086E40E9408
:103F700023288EE30E9423280E945C2881E00E946F
:103F80009711812F887E09F469C080911A01982FBA
:103F9000937009F052C08872A1F080911C01807C5E
:103FA00081F40E94E01982E080931E0180911A0141
:103FB000803239F417FD05C080911C018068809320
:103FC0001C0180911A01811103C091E090931C01A2
:103FD00016FF07C085FD05C090911C019064909369
:103FE0001C0113FF05C0807E19F480E180931A0143
:103FF00015FF23C083EA92E00E94C2238FE492E07F
:104000000E94C2230E94C82980911C0187FD10C014
:1040100090911A01903439F483FF07C0837E826047
:1040200080931C0102C0903819F080E480931A013B
:1040300080911C01806280931C0117FF0CC080914D
:104040001A01813029F480911C01856080931C0144
:1040500080E880931A0188EE0E94971111FF44C0F6
:10406000812F8876F1F580911A01803471F4809166
:104070001C0185FD0AC084FF03C010921A0105C00F
:1040800082FF03C0886080931C0180911A018823FD
:1040900081F084FF26C090911C0190FF22C08031E6
:1040A00041F480912401882321F0886080932401C9
:1040B00018C010921E010E946624892B71F0809115
:1040C0001C0186FD0AC010921C0188E080931A0131
:1040D0000E9439120E94E51C04C010921C0110922B
:1040E0001A0182E00E94971112FF41C080911A01CB
:1040F000807D90911C018823D9F080911D01811150
:1041000017C097FD15C00E94E0198091F9018093B6
:10411000F8010E94872480911E0181FF05C09091C3
:104120001C01916090931C01897F80931E011CC02B
:1041300097FF0AC010921E010E9476240E946A1AFC
:104140000E9413020E94D12380911C0185FF08C0A8
:104150008F77816080931C0180E480931A0104C0F2
:1041600010921C0110921A0184E00E949711909104
:104170004D05992309F4ABC08FB7F89410924D0503
:104180008FBF4091210190FF02C084E601C0842FBF
:1041900091FD865F92FD8A5093FD8F5F94FD815063
:1041A000893C08F088EC8A3008F48AE030912201DA
:1041B00095FF02C024E601C0232F96FD22E397FD60
:1041C00029E1841303C0231709F481C080932101DE
:1041D00020932201109225011091F90130901A05C7
:1041E00089E9D82E96E7E92E26E9F22E0EE732E38A
:1041F000432E131509F457C0812E912C489CC00101
:10420000499C900D1124FC01E650FE4F5F01CF0147
:104210000E94F323562E672E782EC92E2D2D3E2D6B
:104220004F2D502F0E94DA3918164CF42D2D3E2DAB
:104230004F2D502F6D2D7E2D8F2D902F08C0252DA9
:10424000362D472D5C2D652D762D872D9C2D0E94BA
:104250001A3AF501668B778B808F918F489CC0014D
:10426000499C900D11249C0126503E4F7901F90183
:1042700082A093A0A4A0B5A0A50194016689778926
:10428000808D918D0E94DA3918162CF4F701868AF8
:10429000978AA08EB18E1F5F103109F410E0D52CE3
:1042A00073010C2DA6CF8D2D9E2DAF2DB02F809399
:1042B0001C0690931D06A0931E06B0931F060E9435
:1042C000E0198091F9018093F8010E948724909170
:1042D0004E05992309F448C08FB7F89410924E0503
:1042E0008FBF2091230190FF02C084E601C0822F7E
:1042F00091FD865F92FD8A5093FD8F5F94FD815002
:10430000893C08F088EC8A3008F48AE0821749F08A
:1043100020911E01286020931E018093230110929A
:10432000250180911A0195FF0DC0803159F420912B
:104330002401211102C022E003C020FF03C0246039
:1043400020932401907C81F0882311F0887161F022
:104350001091880116FF02C01F7B01C01064812FDD
:104360000E94C0021093880180911A018C7F11F085
:104370000E943912A4960FB6F894DEBF0FBECDBFCF
:10438000DF91CF911F910F91FF90EF90DF90CF9031
:10439000BF90AF909F908F907F906F905F904F9065
:1043A0003F900895CF92DF92EF92FF921F93CF93A9
:1043B000DF930E94A51D80911C01882309F4F6C09B
:1043C0000E946624009771F4C09188018091890150
:1043D000C82BC0908A01D0908B01E0908C01F090A6
:1043E0008D0106C0FC01C189C6A4D7A4E0A8F1A82C
:1043F0008091700181FF03C080E20E947F11DC2F59
:10440000D07311E0C07490911C01992309F4CEC0BF
:1044100080911B018111CAC090FFC5C080911A0113
:10442000282F207C09F474C092FD12C01092240140
:1044300040E050E0BA0180E00E94FD1C80E00E9454
:10444000C00290911C019D7F946090931C01ABC0B1
:104450008038E1F483EA92E00E94C2238CE092E08B
:104460000E94C2230E94C82940E050E0BA0180E0C7
:104470000E94FD1C80E00E94C0020E94341A8091BC
:104480001B01811193C00E94A51DF9CF803419F43E
:104490009F7D90931C0180911C0183FF84C09091AB
:1044A00089019923C1F081FD16C08091700181FFBF
:1044B00006C080911E01886080931E010CC0B70168
:1044C000A6018D2F0E94FD1C41E060E070E080E8B5
:1044D00090E40E94D22580918801882371F0809118
:1044E0001C0181FD0AC08C2F0E94C00241E060E0E7
:1044F00070E080E89FE30E94D22590911C0191FD1D
:1045000052C0906190931C0182E00E94A1114BC0A7
:10451000909124019923C9F191FF0DC080918901E7
:104520008823B1F040E050E0BA0180E00E94FD1C19
:104530001093240138C09C70B1F1809189018111E0
:104540000AC08091240183FF03C082E00E94A11170
:104550001092240128C083EA92E00E94C22385E1E0
:1045600092E00E94C2230E94C8298091700181FFBD
:1045700006C080911E01886080931E01E2CFB701C2
:10458000A6018D2F0E94FD1CDCCF80911E0183FFB0
:104590000AC0B701A6018D2F0E94FD1C80911E014B
:1045A000877F80931E010E94A51D2DCFDF91CF91A3
:1045B0001F91FF90EF90DF90CF9008950E947C1D97
:1045C0000E94D22180911B01811108C00E946624A3
:1045D000892BB1F780911A01883091F308958F9259
:1045E0009F92AF92BF92CF92DF92EF92FF920F9382
:1045F0001F93CF93DF93CDB7DEB72D970FB6F89407
:10460000DEBF0FBECDBF6B017C01042F20E030E088
:10461000A9010E94B83787FF07C08DE20E942328B6
:10462000F7FAF094F7F8F094102F123060F020E0D1
:1046300030E048EC52E4C701B6010E941A3A6B011F
:104640007C011250F2CF00FF0AC020E030E040E2CF
:1046500051E4C701B6010E941A3A6B017C0120E0C7
:1046600030E040E05FE3C701B6010E94C3360E941C
:10467000343810E03AE0832E912CA12CB12C611536
:1046800071058105910591F0EE24E394F12CEC0E77
:10469000FD1EE10EF11CA50194010E948036605DB3
:1046A000F7016083B901CA011F5FE9CF80E31017EA
:1046B00048F4E1E0F0E0EC0FFD1FE10FF11D808315
:1046C0001F5FF5CF101314C011E0100F80E3FE013F
:1046D000E00FF11D81830CC0101303C08EE20E9415
:1046E0002328FE01E10FF11D80810E942328115033
:1046F0001111F2CF2D960FB6F894DEBF0FBECDBFCD
:10470000DF91CF911F910F91FF90EF90DF90CF90AD
:10471000BF90AF909F908F9008952091700120FFDF
:1047200008C02BE832E441E25DE30E941A3A44E01B
:1047300001C043E00C94EF22CF93DF93843630F036
:104740006AE00E946036C0E3C90F03C0C0E08A304F
:1047500030F06AE00E946036D0E3D90F01C0D0E0AB
:10476000805D0E942328DD2319F08D2F0E942328CD
:10477000CC2329F08C2FDF91CF910C942328DF914B
:10478000CF910895CF93DF93FC018491EF0121969F
:10479000882321F00E942328FE01F7CFDF91CF91DB
:1047A0000895E4E0F6E0A1E0B1E04D915D916D91F6
:1047B0007C911397408351836283738314964D9148
:1047C0005D916D917C9117974483558366837783C0
:1047D00018968D919D910D90BC91A02D8087918709
:1047E000A287B3870895BF92CF92DF92EF92FF9294
:1047F0000F931F93CF93DF937C01FC0102A513A5B8
:10480000D4A5C5A5818980FF18C06091220170E000
:1048100080E090E00E946C382AE037ED43E25CE3F0
:104820000E941A3A9B01AC01B8018D2F9C2F0E9467
:104830001A3A8B01D82FC92F2DC082FD17C0609165
:10484000210170E080E090E00E946C382AE037EDB2
:1048500043E25CE30E941A3A9B01AC01B8018D2F40
:104860009C2F0E941A3A8B01D82FC92FF701B6A0AE
:10487000C7A0D0A4F1A42B2D3C2D4D2D5F2DB80148
:104880008D2F9C2F0E94DA39181624F40B2D1C2D25
:10489000DD2DCF2D20E030E040E85FE3B8018D2F23
:1048A0009C2F0E94DA39181624F000E010E0D0E8BE
:1048B000CFE3B8018D2F9C2FDF91CF911F910F91E6
:1048C000FF90EF90DF90CF90BF9008958091F90115
:1048D00090911A05981739F022E3829FC0011124A4
:1048E00086509E4F089580E090E008958CE1E4E0CA
:1048F000F6E0DF011D928A95E9F71092F901109216
:104900001A0581E0809320061092F80108952F92F5
:104910003F924F925F926F927F928F929F92AF924F
:10492000BF92CF92DF92EF92FF920F931F93CF939C
:10493000DF93C0911A05C11101C0C0E1C150D091EF
:10494000F801CD1709F41BC1EC2EF12C22E3C29F14
:104950008001112406501E4FF801A688B788C08C2C
:10496000D18C628D738D848D958D9B01AC010E94DD
:10497000C336F801268D378D40A151A10E941A3A05
:104980004B018C019B01AC01B501C6010E94B837F7
:1049900087FD02C05401680182E38E9DF0018F9D66
:1049A000F00D1124E650FE4FC501D601828B938B8A
:1049B000A48BB58BC11101C0C0E1C150CD1761F00E
:1049C00022E32E9DC0012F9D900D11249C012650A5
:1049D0003E4F7901D2E333C08091F901D8135EC014
:1049E0000E94E0195BC0AC2EB12CDA9DC001DB9DAA
:1049F000900D1124FC01E650FE4F6F01C11101C062
:104A0000C0E1C1508091F901C81302C00E94E019B1
:104A1000DA9D8001DB9D100D112406501E4FF80118
:104A200086889788A08CB18CA501940162897389CE
:104A3000848995890E94B837811106C076018091DA
:104A4000F801C813D0CF2AC0F801628D738D848D10
:104A5000958D9B01AC010E94C336F801268D378DE0
:104A600040A151A10E941A3AF70122893389448951
:104A700055890E94C3362B013C01A50194010E9477
:104A8000B837F80187FF05C0428A538A648A758A5D
:104A9000D5CF828A938AA48AB58AD0CFD091F801E3
:104AA000F2E3DF9F8001112406501E4FC1E0CD0FBD
:104AB000C03109F4C0E020901A0582E3382EC215F7
:104AC00009F45BC0CC2ED12C3C9CC0013D9C900DC8
:104AD00011249C0126503E4F7901F80142885388E9
:104AE00064887588F90182889388A488B588A501AF
:104AF0009401C301B2010E94B83787FF24C0F801B6
:104B0000628D738D848D958D9B01AC010E94C3369F
:104B1000F801268D378D40A151A10E941A3A9B01C0
:104B2000AC01C301B2010E94C3362B013C01A501B7
:104B300094010E94B83787FF06C0F701428A538A62
:104B4000648A758ADC2F3C9CF0013D9CF00D112499
:104B5000E650FE4F26893789408D518D62897389D1
:104B6000848995890E94B837811101C0DC2FCF5FFD
:104B7000C03109F4C0E08701A2CFD093F801DF91E2
:104B8000CF911F910F91FF90EF90DF90CF90BF904A
:104B9000AF909F908F907F906F905F904F903F90DD
:104BA0002F9008950F931F93CF93C42F20E030E0F0
:104BB00040EA51E40E941A3A0E94A1370E943B3811
:104BC0008B0101151105D9F080911B01811117C0CE
:104BD000C11103C00E94D22106C00E94A51D809170
:104BE0001C0181FD0CC02FEF80E792E02150804036
:104BF0009040E1F700C0000001501109E2CFCF91D1
:104C00001F910F91089580914B0584FD1FC080E195
:104C10000E94A1118091B0008F778093B0004398DB
:104C200090911A01892F8C7221F480911E01867057
:104C300069F0943031F480914C05811105C086E013
:104C400001C083E00E9491110C94341A08956AE027
:104C500080E090E00E945F0245E550E06BE271E089
:104C600081E090E00C948102CF93DF9300D01F92FB
:104C7000CDB7DEB76A837B8389830E94DE22898178
:104C80002DE0829FC00111244CE050E06A817B81BD
:104C90009E5F0F900F900F90DF91CF910C94810247
:104CA000EF92FF920F931F93CF93DF93CDB7DEB7B1
:104CB0002C970FB6F894DEBF0FBECDBF182F80FF24
:104CC000D5C08AE080935B0189E180935E011092F8
:104CD0005C0110925D0181E080935F018AE097EDB5
:104CE000A3E2BCE38093600190936101A093620111
:104CF000B09363018FE692E1A3E0BBE3809364018C
:104D000090936501A0936601B093670180E090E005
:104D1000AAE7B4E48093680190936901A0936A01C3
:104D2000B0936B0110926C0110926D0110926E01A4
:104D300010926F011092710180E090E0A8ECB1E454
:104D40008093720190937301A0937401B0937501E5
:104D500080E090E0AAEFB3E480937601909377012E
:104D6000A0937801B09379012AEF30E030937B0172
:104D700020937A0140E050E060E87FE340937C01BB
:104D800050937D0160937E0170937F0110927001BA
:104D900040E050E06AE773E440932B0150932C010C
:104DA00060932D0170932E0140932F015093300199
:104DB0006093310170933201409333015093340179
:104DC00060933501709336018093370190933801D9
:104DD000A0933901B0933A0180933B0190933C0139
:104DE000A0933D01B0933E0180933F019093400119
:104DF000A0934101B093420180E090EAACE0B7E4B7
:104E00008093430190934401A0934501B0934601E0
:104E10008093470190934801A0934901B0934A01C0
:104E200080934B0190934C01A0934D01B0934E01A0
:104E300080E090E0A8E4B3EC80934F0190935001A0
:104E4000A0935101B0935201809353019093540168
:104E5000A0935501B0935601809357019093580148
:104E6000A0935901B0935A010E94272611FF10C048
:104E7000CE0101967C018CE0F70111928A95E9F749
:104E800000E0B701802F0E9434260F5F0830C9F779
:104E900012FF14C060E080E093E00E945F0260E0D7
:104EA00081E093E00E945F0260E081E593E00E9470
:104EB0005F0260E082E593E00E945F0213FF0AC098
:104EC00060E08EEA93E00E945F0260E08FEA93E088
:104ED0000E945F022C960FB6F894DEBF0FBECDBFC6
:104EE000DF91CF911F910F91FF90EF9008951F9246
:104EF0000F920FB60F9211242F933F934F935F930E
:104F00006F937F938F939F93AF93BF93EF93FF9391
:104F1000E091C600E13271F028F4E83179F40E94A2
:104F2000032656C0EF3321F0EE3741F482E003C090
:104F300081E001C088E00E94A1114AC0E7FF37C0AC
:104F40008E2F90E0FC01E458F109ED31F10508F0F5
:104F50003FC0E659FF4F0C94A23680E2ECCF80911F
:104F60001A0185FF35C080E4E6CF81E00DC082E004
:104F70000BC084E009C088E007C080E105C080E282
:104F800003C080E401C080E80E94881121C081E054
:104F90000BC082E009C084E007C088E005C080E162
:104FA00003C080E201C080E40E947F1111C0A09183
:104FB000A30681E08A0F813809F480E09091A2066F
:104FC000891731F0B0E0AF5DB94FEC938093A30641
:104FD000FF91EF91BF91AF919F918F917F916F91D1
:104FE0005F914F913F912F910F900FBE0F901F90A7
:104FF00018951F920F920FB60F9211248F939F93C3
:10500000EF93FF9380910E07E82FF0E0EB55F94FF7
:1050100090819093C6008F5F893609F480E0809379
:105020000E079091A406891305C08091C1008F7D61
:105030008093C100FF91EF919F918F910F900FBED0
:105040000F901F901895E091A40691E09E0F99365D
:1050500031F490E004C020914B0524FD0FC0209155
:105060000E079217C1F3F0E0EB55F94F8083909350
:10507000A4068091C10080628093C1000895CF93FF
:10508000DF93EC01688179818A819B810E948D2365
:105090008CE20E9423286C817D818E819F810E94F9
:1050A0008D238CE20E942328688579858A859B85DB
:1050B000DF91CF910C948D2381E193E00C94C22376
:1050C000CF93C82F8AE193E00E94C2238C2F0E94C5
:1050D0009C23CF910C945C28811104C089EA92E052
:1050E0000C94C2230C946028CF92DF92EF92FF922F
:1050F0001F93CF93DF931F92CDB7DEB7182F6A01AE
:105100007B0184E229830E942328812F0E949C2313
:105110008DE30E9423282981422FC701B6010E94F6
:10512000EF220F90DF91CF911F91FF90EF90DF90D2
:10513000CF900C945C281F93CF93DF931F92CDB731
:10514000DEB7182F84E269830E942328812F0E94F2
:105150009C238DE30E9423286981862F0E949C2333
:105160000F90DF91CF911F910C945C28EF92FF92EA
:105170000F931F93CF93DF9360915B0170E080E00A
:105180000E949B2860915E0170E081E00E949B2854
:1051900060915C0170E082E00E949B2860915D015B
:1051A00070E083E00E949B286091700162FB66279B
:1051B00060F970E084E00E949B286091700166FBBA
:1051C000662760F970E085E00E949B28809170015D
:1051D000082E000C990B692F661F6627661F70E06A
:1051E00086E00E949B2860915F0170E08AE00E9447
:1051F0009B28409160015091610160916201709122
:10520000630123E08BE00E94742840916401509177
:105210006501609166017091670123E08CE00E9456
:10522000742860917001617070E08DE00E949B288D
:105230006091700165FB662760F970E084E10E946F
:105240009B286091700163FB662760F970E085E13F
:105250000E949B28609170016295617070E086E108
:105260000E949B286091710170E087E10E949B2859
:1052700040917201509173016091740170917501B8
:1052800023E088E10E9474284091760150917701D3
:10529000609178017091790123E089E10E9474287E
:1052A00060917A0170917B018AE10E949B28409174
:1052B0007C0150917D0160917E0170917F0123E01E
:1052C0008BE10E94742840916801509169016091BE
:1052D0006A0170916B0120E08EE10E947428409178
:1052E0006C0150916D0160916E0170916F0120E031
:1052F0008FE10E947428609170016695617070E082
:1053000080E20E949B28D4E6F12C0BE211E083E0BE
:10531000E82EED0ECD2F82E0F81691F0E3E0FE16B8
:10532000E9F0F1E0FF1631F0F8014081518162812E
:1053300073811AC0F801448555856685778514C048
:1053400020E030E041E655E4F801608D718D828DFA
:10535000938D0E94C237AB01BC0106C0F80144A185
:1053600055A166A177A1705823E08C2F0E94742864
:105370000C5F1F4FCF5FCE11CECFD65FF394DC38DA
:1053800021F6DF91CF911F910F91FF90EF9008953B
:105390008DE50E9423280C945C288F929F92AF92F7
:1053A000BF92CF92DF92EF92FF920F931F93CF9312
:1053B000DF937C016B01DC01EC91F0E0E15FF84FE1
:1053C0009081EF019D3221F42296918101E007C086
:1053D0009B3211F0219602C02296918100E0912C1F
:1053E000F0E010E020E030E0A9015E01E0EDE90F1F
:1053F000EA30D0F4FF5FF93098F491101150A5E035
:10540000B0E00E94A836DC01CB01880F991FAA1FCB
:10541000BB1F9C01AD012E0F311D411D511D0AC046
:10542000911008C01F5F06C0EE3F41F4911006C006
:10543000992493942196D5019C91D7CFFF2309F409
:105440004FC0CA01B9010E946A384B015C0120E0DB
:1054500030E0A9010E94B837882349F11F3F64F466
:105460002AE037ED43E25CE3C501B4010E941A3A39
:105470004B015C011E5FF2CF1F3F59F42DEC3CEC59
:105480004CEC5DE3C501B4010E941A3A4B015C018A
:105490000EC0112361F020E030E040E251E4C5018C
:1054A000B4010E941A3A4B015C011150F2CF002363
:1054B00051F0B7FAB094B7F8B094F60180829182B7
:1054C000A282B38206C0D6018D929D92AD92BC920B
:1054D0001397CF50D740C150F701C08381E001C07E
:1054E00080E0DF91CF911F910F91FF90EF90DF90BF
:1054F000CF90BF90AF909F908F9008952F923F9242
:105500004F925F926F927F928F929F92AF92BF92D3
:10551000CF92DF92EF92FF920F931F93CF93DF937F
:10552000CDB7DEB7A1970FB6F894DEBF0FBECDBFE3
:1055300090911B019111C3C18D8F3E012DE0620E30
:10554000711C89E0D3011D928A95E9F786E08D8B65
:105550002FE4A22E21E0B22EFE0176964F0100E04C
:1055600010E0C12CD12C76013D8D232F30E03C8FF3
:105570002B8F902F0115110521F0013021F080E1D2
:1055800003C084E001C088E0D4018D934D01EB8D10
:10559000FC8D02C0F595E7959A95E2F7E0FF17C0FC
:1055A00020E030E040EC5FEBD5016D917D918D9175
:1055B0009C910E941A3A1B012C019B01AC01C7016E
:1055C000B6010E94DA39181614F0610172010F5FFA
:1055D0001F4FB4E0AB0EB11C0330110551F6209003
:1055E000760130907701409078015090790194E0F5
:1055F000A92EBB24B39461E071E0CE0101960E9414
:10560000AA1180917101882E912CFE01319621E022
:1056100031E03A8F298F890120E030E060E070E0CE
:10562000D701C601B0588E8F9F8FA8A3B9A34B8D09
:105630005C8D022E02C0559547950A94E2F740FF13
:105640002BC06F5FD8011D921D921D921C92139763
:10565000A401022E02C0559547950A94E2F740FF37
:1056600003C0BB2019F007C0BB2029F0C082D18243
:10567000E282F38208C08E8D9F8DA8A1B9A180839C
:105680009183A283B38346E150E04C0F5D1F420F2C
:10569000531FDA014C91742B2F5F3F4F34960C5FF0
:1056A0001F4F2330310519F6172F70E080E090E08E
:1056B0000E946A380E94B93A9B01AC011093200104
:1056C000C201B1010E941A3A6D877E878F87988B3D
:1056D000B301CE0101960E940C33B4E0B0931E01D9
:1056E0000E9439120E94E51CBB20E9F00E94FE01D5
:1056F000FE01769620E030E090E06191462F412354
:1057000059F0AC01022E02C0559547950A94E2F774
:1057100040FF02C0609516232F5F3F4F23303105B5
:1057200061F7109320010E94391280914B05847318
:1057300039F110914B0514FF03C086E00E949111CE
:1057400015FF03C087E00E949111B11007C00E94AD
:10575000FE01ED8D8E2339F088E003C012FF03C0F7
:1057600089E00E94911180914C05882329F00E94C4
:1057700003260E94D221A3C084E00E94971104C096
:10578000812F8C7109F0B0CF0E946A1A00917A01C2
:1057900010917B010115110549F08FE99FE00197F8
:1057A000F1F700C0000001501109F4CF91E0B926D3
:1057B000C9F020E030E040EA50E460917C01709153
:1057C0007D0180917E0190917F010E941A3A6B01C8
:1057D0007C012090720130907301409074015090D0
:1057E000750110C0C0907C01D0907D01E0907E01D9
:1057F000F0907F0120907601309077014090780101
:1058000050907901AA94A110F6CEC0907101D12CCC
:1058100080907C0190907D01A0907E01B0907F01EE
:105820002401350177FA709477F870948BE2E82EB2
:1058300081E0F82E8B8D9C8D002E02C0959587956A
:105840000A94E2F780FF2AC0C601002E02C0959597
:1058500087950A94E2F7D70180FF10C094962D91A6
:105860003D914D915C919797C501B4010E94C3365B
:10587000F701208131814281538106C02D913D91F4
:105880004D915C91C301B2010E941A3A0E94E7391E
:10589000E98DFA8D60837183828393830F5F1F4F3D
:1058A000298D3A8D2C5F3F4F3A8F298F34E0E30EDC
:1058B000F11C0330110509F0BDCF10921E01A19615
:1058C0000FB6F894DEBF0FBECDBFDF91CF911F9111
:1058D0000F91FF90EF90DF90CF90BF90AF909F908F
:1058E0008F907F906F905F904F903F902F90089592
:1058F000CF93DF93CDB7DEB762970FB6F894DEBFD4
:105900000FBECDBF8091C00082608093C000109216
:10591000C50080E18093C4008091C10088698093B4
:10592000C10080E090E00E94C7018A3009F031C5D3
:1059300045E550E061E070E08BE291E00E941902E1
:10594000892B09F426C58AB18C618AB9209A8AB15B
:10595000806E8AB9809181008F7E809381008091D2
:105960008100886080938100809180008C7F80938B
:105970008000809180008F708093800080916E0005
:10598000887F80936E0014BC15BC80916E0081608E
:1059900080936E0087B1887F87B988B1876088B9A6
:1059A00080916C00876080936C00809168008260B9
:1059B000809368008CE0E1E0F1E0DF011D928A95C0
:1059C000E9F7789410921A018091700184FF03C066
:1059D00081E080931A01ADE0CA2EA1E0DA2EB2E098
:1059E000EB2E80911A0191E1EAE1F1E011929A9592
:1059F000E9F780931A0184E68093210180932201C4
:105A0000809323018CE0D6011D928A95E9F71092CC
:105A1000190110924B0510924C0510924D051092F1
:105A20004E058091A3068093A2068FE3E0E8F1E0A3
:105A300011928A95E9F763EA71E080E00E945B1DAC
:105A4000811103C087E00E9460280E94281D3B9AB4
:105A500043980E94B0013D98459A80E00E94841DC1
:105A60000E9476240E946A1A0E94D1230E94130287
:105A70008AE591E00E94C2238091700183FF11C0EA
:105A80000E94FE01882369F081E080931A0183EA75
:105A900092E00E94C22382E492E00E94C2230E940C
:105AA000C82980911A018178A1F083EA92E00E94CE
:105AB000C2238DE792E00E94C2230E94C82981E0A0
:105AC00080931A0100E010E0E3E02E2EF4E03F2E78
:105AD00029C010921A010E945011F4CFE92FF0E072
