:020000005C287A
:0E0006008312031363088A0062088200080058
:10001400831603139818102800000A282108831255
:040024009900080037
:100028008316031398169030831298008316871747
:10003800071383128C1E23281A08F0001D280800B5
:10004800831203131A08F100981C2C28181218168A
:060058007108F000080031
:10005E0003208A110A128000840AE20A0319E30AB5
:08006E00F003031D2F28080018
:1000760083160313A00183126E0884000008EF00A4
:100086006F08003A031954286F088316A1000A2046
:100096008316A00A200883126E0784000008EF006A
:0400A60043280800E3
:0E00AA000030831203138C1A0130F00008009E
:1000B8002A218030831603138700831287010730B3
:1000C80083169F0007309C00813099001815142072
:1000D8000330FB008A30FC005530FD00FD0B722810
:1000E800FC0B7228FB0B7228000000005530EE0054
:1000F8003B200A308316A1000A200D308316A10088
:100108000A20552070080319E12824207008E60009
:10011800FA30E6000130E4000030E5008030F000FD
:10012800803065067002031D9B286408073C031C89
:10013800E128552070080319AC286408663EED00D4
:1001480024206D08840070088000E40A0319E50A79
:100158006130E7004730EE003B200A308316A100EB
:100168000A200D308316A1000A206230E8003A30D8
:10017800EE003B200A308316A1000A200D308316BA
:10018800A1000A206330E9003130EE003B200A303C
:100198008316A1000A200D308316A1000A206430BE
:1001A800EA002030EE003B200A308316A1000A2026
:0E01B8000D308316A1000A2092288528E22827
:1002540020308400423083120313F000E830E200BF
:080264000030E3002F20080028
:1001D00034342034663476347534643462346834AC
:1001E0007534623474346834623475346234703413
:0201F0000034D9
:1001F2003334203446346C346134763469346F34A9
:020202000034C6
:100204003234203475347634683464346634753466
:0A0214006F3464346834663400343B
:10021E00313420347534663468346734753474344C
:0C022E006834743469347434693400346A
:10023A0049346E3469346334693461346E346434F5
:0A024A006F342E342E342E340034AD
:02400E004A2F37
:00000001FF
