:02000000F52ADF
:0A00060000000000000000000800E8
:100010001D3083120313FC009130FD00FD0B0E28F0
:06002000FC0B0E28080095
:10002600423083120313FD00FD0B17280000080061
:1000360083120317961B2128861322288617161B60
:100046002628061327280617961A2B2886122C28E8
:100056008616161A302806123128061603136F184C
:10006600362806153728061186150320861103172C
:1000760096193F2886134028861716194428061312
:10008600452806179618492886124A2886161618ED
:100096004E2806124F28061603136F185428061505
:1000A600552806118615032086116F1C5C2808202A
:0600B6005D281320080084
:1000BC00831603139818642800005E288312031714
:0800CC00150803139900080058
:1000D400831203136F100317150896001B206F1467
:0200E400080012
:1000E600852880308312031791009828C03091002C
:1000F6009828943091009828D43091009828803020
:1001060091009828831203171108013A03197428DD
:100116001108023A031979281108033A03197C28B1
:100126001108043A03197F2882281203F0001108E7
:10013600F00770089100700896001B206F100317D7
:10014600940114081307840000080319B32814083F
:1001560013078400000895006A200317940AA42850
:0601660003136F140800F2
:0E016C001D3083120313FD00FD0BBA2808009E
:10017A0083120317930111088400000892001208E1
:10018A00003A0319D328120895005E200317930A30
:0E019A0013081107840000089200C428080012
:0E01A800831603136F088A006E088200080099
:0E01B6000030831203138C1A0130F000080091
:1001C40040308312031796001B2003179001100878
:1001D400073C031C04291008EA3EF000043003180D
:1001E400013EF100700883160313EE007108EF005E
:1001F400D4208A110A128312031795006A20031768
:10020400900AE92890011008073C031C20291008D3
:10021400CA3EF00004300318013EF1007008831652
:100224000313EE007108EF00D4208A110A1283121E
:10023400031795006A200317900A052990011008F6
:10024400073C031C3C291008DA3EF0000430031874
:10025400013EF100700883160313EE007108EF00ED
:10026400D4208A110A128312031795006A200317F7
:10027400900A212990011008073C031C58291008F2
:10028400D23EF00004300318013EF10070088316DA
:100294000313EE007108EF00D4208A110A128312AE
:1002A400031795006A200317900A3D29900110084E
:1002B400073C031C74291008E23EF00004300318C4
:1002C400013EF100700883160313EE007108EF007D
:1002D400D4208A110A128312031795006A20031787
:0602E400900A59290800F0
:1002EA00831203139F01C0309F0483161F179F17A1
:1002FA00831203171008F000F00D7010F00D701043
:10030A00F00D7010700803139F041F14B6201F15F8
:10031A001F1D912900008D291F101E08F100F001F0
:0C032A0083161E08F0040030F1040800E7
:10033600831203131A08F100981CA3291812181621
:060346007108F000080040
:10034C0083160313EC01ED0180306D06F000803054
:10035C007002031DB32911306C020318D829023026
:10036C00831203179100831603136C08831203176F
:10037C0092005E30930073200330031795006A20BF
:10038C000230FB000430FC00BA30FD00FD0BCC2920
:10039C00FC0BCC29FB0BCC2900008316EC0A0319AF
:1003AC00ED0AAA29EC01ED0180306D06F0008030D9
:1003BC007002031DE32911306C020318042A023069
:1003CC00831203179100831603136C08831203170F
:1003DC0092005C30930073200230FB000430FC0070
:1003EC00BA30FD00FD0BF829FC0BF829FB0BF829A2
:0E03FC0000008316EC0A0319ED0ADA29080046
:10040A008316031398169030831298008316871761
:10041A00071383128C1E142A1A08F0000E2A0800E9
:10042A000130831203179100033092004D3093007C
:10043A0073208030033AF00080306D067002031D8D
:10044A00282A6C08FF3C031C3E2A80306D06F00007
:10045A008030023A7002031D342AC1306C02031C38
:10046A003E2A02300317910006309200D4309300DE
:10047A0073208030023AF00080306D067002031D4E
:10048A00482A6C08C03C031C5E2A80306D06F000C6
:10049A008030013A7002031D542AAD306C02031CED
:1004AA005E2A02300317910005309200CC30930087
:1004BA0073208030013AF00080306D067002031D0F
:1004CA00682A6C08AC3C031C7D2A80306D06F0005B
:1004DA0080307002031D732A00306C02031C7D2ACF
:1004EA0002300317910006309200E5309300732022
:0204FA000800F8
:1004FC008316031386110611061286120613861331
:10050C008312861106118613061386120612082012
:10051C00082008208616061686150320861108204A
:10052C0086150320861108208615032086110820C5
:10053C0006128615032086110820861503208611C5
:10054C008612861786150320861108208613061638
:10055C0086150320861106128615032086110820A5
:10056C008615032086110616861503208611082091
:10057C000612861503208611861706178616061690
:0C058C0086150320861108206F1408005B
:10059800831203135F08213A031DE82A3730031733
:1005A8009100BD200D3095005E200A30031795009C
:1005B8005E20203003179100BD200D3095005E208D
:0A05C8000A30031795005E200800BA
:1005D200D4208A110A128000840AEE0A0319EF0A53
:0805E200F003031DE92A0800E3
:1005EA00FE24673083160313990018150522033079
:1005FA00FB000830FC007730FD00FD0B022BFC0BE2
:10060A00022BFB0B022B8030831687008312870193
:10061A0083168601831286010E3083169F000F30DF
:10062A008500831285017E220130031796001B2064
:10063A000C30031796001B20E22001309100033092
:10064A0092006E3093007320031795016A200130DF
:10065A000317910004309200DB30930073200130BD
:10066A00031795006A200230031795006A200130AB
:10067A00031795006A20A621DB20700803194C2B6A
:10068A009B217008DF007008031795005E20CC22BA
:10069A00E2209001752170088312EC007108ED00C8
:1006AA0085185E2B05195E2B7830DF00071415229A
:1006BA00602B071087108518702B7830DF0007141D
:1006CA003430FC00F130FD00FD0B692BFC0B692B6B
:1006DA0000000000712B07100519782B7830DF0015
:1006EA0087141522792B871085198B2B7830DF0018
:1006FA0087110530FB000F30FC00F130FD00FD0BC7
:10070A00842BFC0B842BFB0B842B8C2B87155F080B
:10071A006D3A031D932B0714871415225F084D3A6F
:10072A00031DC42B07108710E2200130910003300B
:10073A0092006B3093007320031795016A200130F1
:10074A000317910004309200613093007320013046
:10075A00031795006A200230031795006A200130BA
:10076A00031795006A2002300317910001309200A6
:10077A00A03093007320A62178308312DF001B2C4F
:10078A0007143430FC00F130FD00FD0BCA2BFC0BC2
:10079A00CA2B00000000332C87143430FC00F130DF
:1007AA00FD00FD0BD62BFC0BD62B000000001522FA
:1007BA00332C87113430FC00F130FD00FD0BE32BA4
:1007CA00FC0BE32B00000000332C0710332C87109E
:1007DA00E2200130910003309200603093007320D0
:1007EA00031795016A200130031791000430920023
:1007FA00C230930073200130031795006A2002303B
:10080A00031795006A200130031795006A20023009
:10081A000317910001309200B130930073207830B1
:10082A00DF00A621332C83128715332C5F08623A26
:10083A000319C52B5F08663A0319D12B5F08683A7A
:10084A000319DE2B5F08423A0319EA2B5F08463A7E
:10085A000319EC2B5F08483A0319182C412B342C46
:1009FC0020308400413083120313F0003A30831608
:100A0C00EE000430EF00E922A03084001130831294
:100A1C00F00096308316EE000430EF00E9226130CE
:100A2C0084000A308312F000C0308316EE000430CC
:100A3C00EF00E922B13084001B308312F0007B30D0
:100A4C008316EE000430EF00E9226B308400013095
:100A5C008312F000FC308316EE000430EF00E92224
:100A6C00CC3084000F308312F000A7308316EE00D8
:100A7C000430EF00E9226C30840002308312F00065
:100A8C00F9308316EE000430EF00E922DB308400ED
:100A9C000A308312F000B6308316EE000430EF00FB
:100AAC00E9226E30840001308312F000FB30831693
:100ABC00EE000430EF00E922E530840007308312A9
:100ACC00F000F2308316EE000430EF00E92208004B
:1008740046346C346134763469346F34203448340B
:100884002E3420344D342E342034423465347234C2
:0E089400673461346D3469346E346934003475
:1008A20043346F3470347934723469346734683461
:1008B200743420345234653473346534723476348B
:0C08C2006534643420346234793400342E
:1008CE002034563465346C346F3463346934643494
:0E08DE006134643465343A34203420340034FC
:0408EC002034003480
:0208F0000034D2
:0208F200783458
:0208F4000034CE
:1008F6002034203420342034203420342034203452
:100906002034203420342034203420342034203441
:020916000034AB
:10091800723465347334613464346F3472346134DE
:040928002034003443
:10092C00203420342034203420342034203420341B
:10093C00203420342034203420342034203420340B
:02094C00003475
:10094E0020344D34653464346934613420340034D9
:0E095E004D346134783469346D3461340034C2
:10096C00723465347334613464346F34723461348A
:04097C0020340034EF
:10098000723465347334613464346F347234613476
:0409900020340034DB
:100994000E341D341C341C341C341D340E34003409
:1009A40015340A3415340A3415340A341534003431
:1009B40019341D341D341F341B341B3419340034D2
:1009C4001F34193417341334173417341F341F34B5
:1009D4000F3418341E3418341834183410340034D6
:0E09E4004D3469346E3469346D34613400343E
:0409F2000034003499
:0209F6000034CB
:0209F8000034C9
:02400E000A2F77
:00000001FF
