:020000001628C0
:0E0006008312031321088A00200882000800DC
:1000140003208A110A128000840AA00A0319A10A83
:08002400F003031D0A28080087
:10002C008316031387018312870102308316850020
:10003C0083128501073083169F008312851834289C
:10004C0007140530FB000F30FC00F130FD00FD0BF8
:10005C002D28FC0B2D28FB0B2D28412807100530D3
:10006C00FB000F30FC00F130FD00FD0B3B28FC0BBE
:0A007C003B28FB0B3B2823284228F9
:02400E000A2F77
:00000001FF
