:02000000382D99
:0A00060000000000000000000800E8
:100010001D3083120313FC009130FD00FD0B0E28F0
:06002000FC0B0E28080095
:10002600423083120313FD00FD0B17280000080061
:1000360083160313C81B22288312861324288312CF
:1000460086178316481B2A28831206132C28831228
:1000560006178316C81A322883128612342883128A
:1000660086168316481A3A28831206123C288312EB
:10007600061683163E184228831206154428831254
:1000860006118615032086118316C8194D2883127A
:1000960086134F288312861783164819552883120C
:1000A60006135728831206178316C8185D2883126D
:1000B60086125F28831286168316481865288312CF
:1000C600061267288312061683163E186D288312B9
:1000D60006156F28831206118615032086118316CE
:0C00E6003E1C7728082078281320080012
:1000F2007408F8027508031C750FF9027608031CD0
:10010200760FFA027708031C770FFB02F30D073014
:10011200FC00730DF80DF90DFA0DFB0D7408731C3C
:10012200A028F8027508031C750FF9027608031C53
:10013200760FFA027708031C770FFB02AD28F80747
:1001420075080318750FF90776080318760FFA0772
:1001520077080318770FFB07F30DFC0B8A28720D43
:10016200F80DF90DFA0DFB0D7408731CC628F80280
:100172007508031C750FF9027608031C760FFA0244
:100182007708031C770FFB02D328F80775080318BA
:10019200750FF90776080318760FFA077708031820
:1001A200770FFB07F20D0730FC00720DF80DF90D09
:1001B200FA0DFB0D7408721CEC28F8027508031C7A
:1001C200750FF9027608031C760FFA027708031CF2
:1001D200770FFB02F928F80775080318750FF9075E
:1001E20076080318760FFA0777080318770FFB07CC
:1001F200F20DFC0BD628710DF80DF90DFA0DFB0D61
:100202007408721C1229F8027508031C750FF90292
:100212007608031C760FFA027708031C770FFB029D
:100222001F29F80775080318750FF90776080318D0
:10023200760FFA0777080318770FFB07F10D0730DF
:10024200FC00710DF80DF90DFA0DFB0D7408711C0F
:100252003829F8027508031C750FF9027608031C89
:10026200760FFA027708031C770FFB024529F8077D
:1002720075080318750FF90776080318760FFA0741
:1002820077080318770FFB07F10DFC0B2229700D7D
:10029200F80DF90DFA0DFB0D7408711C5E29F802B8
:1002A2007508031C750FF9027608031C760FFA0213
:1002B2007708031C770FFB026B29F80775080318F0
:1002C200750FF90776080318760FFA0777080318EF
:1002D200770FFB07F00D0730FC00700DF80DF90DDC
:1002E200FA0DFB0D7408701C8429F8027508031CB2
:1002F200750FF9027608031C760FFA027708031CC1
:10030200770FFB029129F80775080318750FF90793
:1003120076080318760FFA0777080318770FFB079A
:10032200F00DFC0B6E297018A4297408F8077508E3
:100332000318750FF90776080318760FFA0777087E
:080342000318770FFB07080008
:10034A00FB09FA09F909F809F80A0319F90A03195C
:08035A00FA0A0319FB0A08006E
:10036200831603133E104708C8001B2083163E1451
:02037200080081
:10037400CC29803083160313C300DF29C030C300A7
:10038400DF299430C300DF29D430C300DF29803053
:10039400C300DF29831603134308013A0319BB2959
:1003A4004308023A0319C0294308033A0319C3292D
:1003B4004308043A0319C629C9294403F000430831
:1003C400F0077008C3007008C8001B2083163E1095
:1003D400C60146084507840000080319F9294608A0
:1003E400450784000008C700B121C60AEB293E1462
:0203F4000800FF
:1003F6000D2A803083160313C300202AC030C300A1
:10040600202A9430C300202AD430C300202A80300A
:10041600C300202A831603134308013A0319FC2953
:100426004308023A0319012A4308033A0319042A26
:100436004308043A0319072A0A2A4403F00043082A
:10044600F0077008C3003E147008C8001B2083160E
:0E0456003E104508C8001B2083163E14080007
:0E0464008316031339088A0038088200080046
:0E0472001D3083120313FD00FD0B3D2A080010
:10048000831603139818462A0000402A4308831253
:0404900099000800C7
:10049400831203137408003A031D652A7508003A91
:1004A400031D652A7608003A031D652A7708003A79
:1004B400031D652AFF30F000FF30F100FF30F20029
:1004C4007F30F300FE2A83120313FC01F71BFC0A9E
:1004D400FD01FB01FA01F901F801730872047104CA
:1004E40070040319F92A73087706A000A01BFD09FC
:1004F400F71F872AF409F509F609F709F40A03191D
:10050400F50A0319F60A0319F70AF31F942AF009E6
:10051400F109F209F309F00A0319F10A0319F20ABD
:100524000319F30A73087704A000A01BB52A7920E5
:10053400FC1BD22AFD1FF92AF009F109F209F3097B
:10054400F00A0319F10A0319F20A0319F30AF80964
:10055400F909FA09FB09F80A0319F90A0319FA0A4D
:100564000319FB0AF92AF71FCC2AF31BC62A7308BE
:10057400FB007208FA007108F9007008F800F30132
:10058400F201F101F0019C2AF301F201F101F00101
:10059400F00A0034F309F209F109F009FC17992A69
:1005A400F80A0319F90A0319FA0A0319FB0A740869
:1005B4007802031D9C2A75087902031D9C2A76087B
:1005C4007A02031D9C2A77087B02031D9C2AFB01E7
:1005D400FA01F901F801F00A0319F10A0319F20A00
:1005E4000319F30AF31F9C2AA0012016FF34A0016B
:0A05F4007C1CFD2AA521003E080032
:1005FE0083120313871401308316C3000330C40023
:10060E002130C500BA211030F4002730F500F60174
:10061E00F70183122F08F0003008F1003108F200C4
:10062E003208F3004A2270088316BA007108BB0024
:10063E007208BC007308BD000230C3000430C40051
:10064E0030307007C500FB21E830F4000330F500B0
:10065E00F601F70183122F08F0003008F10031087F
:10066E00F2003208F3004A220A30F400F501F601D6
:10067E00F7014A227808F0007908F1007A08F200B2
:10068E007B08F30070088316BA007108BB0072086D
:10069E00BC007308BD000230C3000530C40030300A
:1006AE007007C500FB216430F400F501F601F70177
:1006BE0083122F08F0003008F1003108F2003208E2
:1006CE00F3004A220A30F400F501F601F7014A223E
:1006DE007808F0007908F1007A08F2007B08F30040
:1006EE0070088316BA007108BB007208BC0073084C
:1006FE00BD000230C3000630C40030307007C500A4
:10070E00FB210A30F400F501F601F70183122F08E0
:10071E00F0003008F1003108F2003208F3004A22EE
:10072E000A30F400F501F601F7014A227808F000CC
:10073E007908F1007A08F2007B08F300700883163E
:10074E00BA007108BB007208BC007308BD0002300D
:10075E00C3000730C40030307007C500FB210A30DB
:10076E00F400F501F601F70183122F08F0003008AE
:10077E00F1003108F2003208F3004A227808F00046
:10078E007908F1007A08F2007B08F30070088316EE
:10079E00BA007108BB007208BC007308BD000230BD
:1007AE00C3000830C40030307007C500FB21023092
:0E07BE00C3000A30C4003330C500BA21080061
:1007CC00831203132230FC00F801F901FA01FB013A
:1007DC00FC0303191C2C0310FB0CFA0CF90CF80C81
:1007EC00F30CF20CF10CF00C031CEE2BFC030319B4
:1007FC000E2C7408F80775080318750FF90776089E
:10080C000318760FFA0777080318770FFB07F22BFC
:10081C007408F80775080318750FF907760803189C
:0E082C00760FFA0777080318770FFB0708000E
:10083A00831203139F01C0309F0483161F179F174B
:10084A004008F000F00D7010F00D7010F00D7010EF
:10085A00700883129F041F1439221F151F1D372C7D
:10086A000000332C1F101E08F100F00183161E0829
:08087A00F0040030F104080055
:10088200831203131A08F100981C492C1812181627
:060892007108F0000800EF
:0E0898000030831203138C1A0130F0000800A8
:1008A6008316031386110611061286120613861383
:1008B6008312861106118613061386120612082065
:1008C600082008208616061686150320861108209D
:1008D6008615032086110820861503208611082018
:1008E6000612861503208611082086150320861118
:1008F600861286178615032086110820861306168B
:1009060086150320861106128615032086110820F7
:1009160086150320861106168615032086110820E3
:1009260006128615032086118617061786160616E2
:0E093600861503208611082083163E14080043
:10094400403083160313C8001B208316C0014008DF
:10095400073C031CBF2C4008FE3EF0000630031881
:10096400013EF1007008B8007108B90032228A1102
:100974000A12C700B121C00AA92CC0014008073CD3
:10098400031CD62C4008063EF00007300318013E35
:10099400F1007008B8007108B90032228A110A12F5
:1009A400C700B121C00AC02CC0014008073C031C89
:1009B400ED2C40080E3EF00007300318013EF10014
:1009C4007008B8007108B90032228A110A12C700EF
:1009D400B121C00AD72CC0014008073C031C042DD8
:1009E4004008F63EF00006300318013EF10070089E
:1009F400B8007108B90032228A110A12C700B12165
:060A0400C00AEE2C080000
:100A0A0032228A110A128000840AB80A0319B90A22
:080A1A00F003031D052D080087
:100A220083160313C201400884000008C100410874
:100A3200003A0319272D4108C30040228316C20A37
:0E0A42004208400784000008C100182D08007B
:100A50008316031398169030831298008316871715
:100A6000071383128C1E372D1A08F000312D080051
:100A700018276730831603139900181528250330AB
:100A8000FB000830FC007730FD00FD0B452DFC0B12
:100A9000452DFB0B452D803083168700831287017F
:100AA00083168601831286010E3083169F000E3056
:100AB00085008312850153240130C8001B200C30AF
:100AC0008316C8001B20A2240130C3000330C400D9
:100AD0006E30C500BA21C701B1210130C300043016
:100AE000C400A030C500BA210130C700B1210230D6
:100AF000C700B1210130C700B121AA30C0001125C3
:100B00000A30C30040220D308316C30040224C241B
:100B100070080319922D412470088316BF007008D5
:100B2000C3004022A224C0011D2470088312AF001C
:100B30007108B000B101B2012F08F0003008F100D7
:100B40003108F2003208F3003030F4007530F5005F
:100B5000F601F701E623FF30F4000330F500F6015B
:100B6000F7014A227008AF007108B0007208B100A6
:100B70007308B2008518C12D0519C12D0714FF2275
:100B8000C42D83120710871083128518D32D0714E4
:100B90003430FC00F130FD00FD0BCC2DFC0BCC2DD6
:100BA00000000000D42D07100519D82DFF22DA2DE2
:100BB0008312871083128519EB2D07110530FB0076
:100BC0000F30FC00F130FD00FD0BE42DFC0BE42D9B
:100BD000FB0BE42DEC2D071583163F086D3A031D22
:100BE000F42D83120714FF223F084D3A031D1C2EDB
:100BF000831207108710A2240130C3000330C40001
:100C00006F30C500BA21C701B1210130C3000430E3
:100C1000C4006430C500BA210130C700B1210230E0
:100C2000C700B1210130C700B1210230C30001303B
:100C3000C4003830C500BA21712E83120714343035
:100C4000FC00F130FD00FD0B232EFC0B232E0000D9
:100C500000008A2E831287143430FC00F130FD002E
:100C6000FD0B302EFC0B302E00000000FF228A2EE0
:100C7000831207113430FC00F130FD00FD0B3E2ED5
:100C8000FC0B3E2E000000008A2E831207108A2ED5
:100C900083128710A2240130C3000330C400373010
:100CA000C500BA21C701B1210130C3000430C4001E
:100CB0004930C500BA210130C700B1210230C70058
:100CC000B1210130C700B1210230C3000130C4009E
:100CD0005330C500BA217830BF008A2E8312071521
:100CE0008A2E83163F08623A03191D2E3F08663A82
:100CF00003192A2E3F08683A0319382E3F08423A52
:100D00000319452E3F08463A0319482E3F08483A32
:080D100003196E2E872D8B2EB6
:100E3000213084004D3083120313F000913083166B
:100E4000B8000630B9000525A03084000A308312AE
:100E5000F000EC308316B8000630B90005256E307E
:100E6000840001308312F00017308316B800073079
:100E7000B9000525AA3084000E308312F000DE3060
:100E80008316B8000630B90005256F3084000130A4
:100E90008312F00016308316B8000730B90005251C
:020EA000080048
:100D22002034563465346C346F346334693464343B
:0C0D320061346434653420342034003413
:080D3E000034003400340034DD
:080D4600523450344D340034E6
:020D4E0000346F
:100D500020342034203420342034203420342034F3
:100D600020342034203420342034203420342034E3
:020D700000344D
:100D7200723465347334613464346F347234613480
:040D820020340034E5
:100D860020342034203420342034203420342034BD
:100D960020342034203420342034203420342034AD
:020DA600003417
:100DA800723465347334613464346F34723461344A
:040DB80020340034AF
:100DBC004634723465347334613464346F34723451
:0C0DCC006134203443344E34433400348E
:100DD800723465347334613464346F34723461341A
:040DE800203400347F
:100DEC0015340A3415340A3415340A3415340034E5
:100DFC000F3418341F3418341834183410340034A9
:100E0C000E341D341C341C341C341D340E3400348C
:100E1C0019341D341D341F341B341B341934003465
:020E2C00003490
:020E2E0000348E
:02400E004A2F37
:00000001FF
